{
  "contractName": "Gst",
  "abi": [
    {
      "constant": true,
      "inputs": [],
      "name": "userCount",
      "outputs": [
        {
          "internalType": "uint256",
          "name": "",
          "type": "uint256"
        }
      ],
      "payable": false,
      "stateMutability": "view",
      "type": "function"
    },
    {
      "constant": true,
      "inputs": [
        {
          "internalType": "uint256",
          "name": "",
          "type": "uint256"
        }
      ],
      "name": "usersMap",
      "outputs": [
        {
          "internalType": "uint256",
          "name": "id",
          "type": "uint256"
        },
        {
          "internalType": "address payable",
          "name": "addr",
          "type": "address"
        },
        {
          "internalType": "string",
          "name": "firstName",
          "type": "string"
        },
        {
          "internalType": "string",
          "name": "lastName",
          "type": "string"
        },
        {
          "internalType": "uint256",
          "name": "balance",
          "type": "uint256"
        },
        {
          "internalType": "string",
          "name": "email",
          "type": "string"
        },
        {
          "internalType": "string",
          "name": "gstNumber",
          "type": "string"
        },
        {
          "internalType": "string",
          "name": "userType",
          "type": "string"
        }
      ],
      "payable": false,
      "stateMutability": "view",
      "type": "function"
    },
    {
      "constant": false,
      "inputs": [
        {
          "internalType": "uint256",
          "name": "_id",
          "type": "uint256"
        },
        {
          "internalType": "string",
          "name": "_firstName",
          "type": "string"
        },
        {
          "internalType": "string",
          "name": "_lastname",
          "type": "string"
        },
        {
          "internalType": "uint256",
          "name": "_balance",
          "type": "uint256"
        },
        {
          "internalType": "string",
          "name": "_email",
          "type": "string"
        },
        {
          "internalType": "string",
          "name": "_gstNumber",
          "type": "string"
        },
        {
          "internalType": "string",
          "name": "_userType",
          "type": "string"
        }
      ],
      "name": "createAccount",
      "outputs": [],
      "payable": false,
      "stateMutability": "nonpayable",
      "type": "function"
    },
    {
      "constant": false,
      "inputs": [
        {
          "internalType": "uint256",
          "name": "_senderId",
          "type": "uint256"
        }
      ],
      "name": "test",
      "outputs": [],
      "payable": true,
      "stateMutability": "payable",
      "type": "function"
    },
    {
      "constant": false,
      "inputs": [
        {
          "internalType": "uint256",
          "name": "_senderId",
          "type": "uint256"
        },
        {
          "internalType": "uint256",
          "name": "_receiverId",
          "type": "uint256"
        }
      ],
      "name": "transferAmount",
      "outputs": [],
      "payable": true,
      "stateMutability": "payable",
      "type": "function"
    }
  ],
  "bytecode": "0x60806040526000805534801561001457600080fd5b50611153806100246000396000f3fe60806040526004361061004a5760003560e01c806307973ccf1461004f5780630f32001c1461007a57806329e99f071461031f5780635e4bb5951461034d578063ca928efb14610685575b600080fd5b34801561005b57600080fd5b506100646106bd565b6040518082815260200191505060405180910390f35b34801561008657600080fd5b506100b36004803603602081101561009d57600080fd5b81019080803590602001909291905050506106c3565b604051808981526020018873ffffffffffffffffffffffffffffffffffffffff1673ffffffffffffffffffffffffffffffffffffffff168152602001806020018060200187815260200180602001806020018060200186810386528c818151815260200191508051906020019080838360005b83811015610141578082015181840152602081019050610126565b50505050905090810190601f16801561016e5780820380516001836020036101000a031916815260200191505b5086810385528b818151815260200191508051906020019080838360005b838110156101a757808201518184015260208101905061018c565b50505050905090810190601f1680156101d45780820380516001836020036101000a031916815260200191505b50868103845289818151815260200191508051906020019080838360005b8381101561020d5780820151818401526020810190506101f2565b50505050905090810190601f16801561023a5780820380516001836020036101000a031916815260200191505b50868103835288818151815260200191508051906020019080838360005b83811015610273578082015181840152602081019050610258565b50505050905090810190601f1680156102a05780820380516001836020036101000a031916815260200191505b50868103825287818151815260200191508051906020019080838360005b838110156102d95780820151818401526020810190506102be565b50505050905090810190601f1680156103065780820380516001836020036101000a031916815260200191505b509d505050505050505050505050505060405180910390f35b61034b6004803603602081101561033557600080fd5b8101908080359060200190929190505050610a23565b005b34801561035957600080fd5b50610683600480360360e081101561037057600080fd5b81019080803590602001909291908035906020019064010000000081111561039757600080fd5b8201836020820111156103a957600080fd5b803590602001918460018302840111640100000000831117156103cb57600080fd5b91908080601f016020809104026020016040519081016040528093929190818152602001838380828437600081840152601f19601f8201169050808301925050505050505091929192908035906020019064010000000081111561042e57600080fd5b82018360208201111561044057600080fd5b8035906020019184600183028401116401000000008311171561046257600080fd5b91908080601f016020809104026020016040519081016040528093929190818152602001838380828437600081840152601f19601f82011690508083019250505050505050919291929080359060200190929190803590602001906401000000008111156104cf57600080fd5b8201836020820111156104e157600080fd5b8035906020019184600183028401116401000000008311171561050357600080fd5b91908080601f016020809104026020016040519081016040528093929190818152602001838380828437600081840152601f19601f8201169050808301925050505050505091929192908035906020019064010000000081111561056657600080fd5b82018360208201111561057857600080fd5b8035906020019184600183028401116401000000008311171561059a57600080fd5b91908080601f016020809104026020016040519081016040528093929190818152602001838380828437600081840152601f19601f820116905080830192505050505050509192919290803590602001906401000000008111156105fd57600080fd5b82018360208201111561060f57600080fd5b8035906020019184600183028401116401000000008311171561063157600080fd5b91908080601f016020809104026020016040519081016040528093929190818152602001838380828437600081840152601f19601f820116905080830192505050505050509192919290505050610aa3565b005b6106bb6004803603604081101561069b57600080fd5b810190808035906020019092919080359060200190929190505050610c10565b005b60005481565b60016020528060005260406000206000915090508060000154908060010160009054906101000a900473ffffffffffffffffffffffffffffffffffffffff1690806002018054600181600116156101000203166002900480601f01602080910402602001604051908101604052809291908181526020018280546001816001161561010002031660029004801561079b5780601f106107705761010080835404028352916020019161079b565b820191906000526020600020905b81548152906001019060200180831161077e57829003601f168201915b505050505090806003018054600181600116156101000203166002900480601f0160208091040260200160405190810160405280929190818152602001828054600181600116156101000203166002900480156108395780601f1061080e57610100808354040283529160200191610839565b820191906000526020600020905b81548152906001019060200180831161081c57829003601f168201915b505050505090806004015490806005018054600181600116156101000203166002900480601f0160208091040260200160405190810160405280929190818152602001828054600181600116156101000203166002900480156108dd5780601f106108b2576101008083540402835291602001916108dd565b820191906000526020600020905b8154815290600101906020018083116108c057829003601f168201915b505050505090806006018054600181600116156101000203166002900480601f01602080910402602001604051908101604052809291908181526020018280546001816001161561010002031660029004801561097b5780601f106109505761010080835404028352916020019161097b565b820191906000526020600020905b81548152906001019060200180831161095e57829003601f168201915b505050505090806007018054600181600116156101000203166002900480601f016020809104026020016040519081016040528092919081815260200182805460018160011615610100020316600290048015610a195780601f106109ee57610100808354040283529160200191610a19565b820191906000526020600020905b8154815290600101906020018083116109fc57829003601f168201915b5050505050905088565b6001600082815260200190815260200160002060010160009054906101000a900473ffffffffffffffffffffffffffffffffffffffff1673ffffffffffffffffffffffffffffffffffffffff166108fc349081150290604051600060405180830381858888f19350505050158015610a9f573d6000803e3d6000fd5b5050565b60008081548092919060010191905055506040518061010001604052808881526020013373ffffffffffffffffffffffffffffffffffffffff1681526020018781526020018681526020018581526020018481526020018381526020018281525060016000805481526020019081526020016000206000820151816000015560208201518160010160006101000a81548173ffffffffffffffffffffffffffffffffffffffff021916908373ffffffffffffffffffffffffffffffffffffffff1602179055506040820151816002019080519060200190610b85929190611079565b506060820151816003019080519060200190610ba2929190611079565b506080820151816004015560a0820151816005019080519060200190610bc9929190611079565b5060c0820151816006019080519060200190610be6929190611079565b5060e0820151816007019080519060200190610c03929190611079565b5090505050505050505050565b60405160200180807f77686f6c6573656c6c6572000000000000000000000000000000000000000000815250600b01905060405160208183030381529060405280519060200120600160008481526020019081526020016000206007016040516020018082805460018160011615610100020316600290048015610ccb5780601f10610ca9576101008083540402835291820191610ccb565b820191906000526020600020905b815481529060010190602001808311610cb7575b505091505060405160208183030381529060405280519060200120148015610dc6575060405160200180807f6d65726368616e74000000000000000000000000000000000000000000000000815250600801905060405160208183030381529060405280519060200120600160008381526020019081526020016000206007016040516020018082805460018160011615610100020316600290048015610da95780601f10610d87576101008083540402835291820191610da9565b820191906000526020600020905b815481529060010190602001808311610d95575b505091505060405160208183030381529060405280519060200120145b15611075573373ffffffffffffffffffffffffffffffffffffffff166001600084815260200190815260200160002060010160009054906101000a900473ffffffffffffffffffffffffffffffffffffffff1673ffffffffffffffffffffffffffffffffffffffff16148015610f0f575060405160200180807f77686f6c6573656c6c6572000000000000000000000000000000000000000000815250600b01905060405160208183030381529060405280519060200120600160008481526020019081526020016000206007016040516020018082805460018160011615610100020316600290048015610ef25780601f10610ed0576101008083540402835291820191610ef2565b820191906000526020600020905b815481529060010190602001808311610ede575b505091505060405160208183030381529060405280519060200120145b8015610fee575060405160200180807f6d65726368616e74000000000000000000000000000000000000000000000000815250600801905060405160208183030381529060405280519060200120600160008381526020019081526020016000206007016040516020018082805460018160011615610100020316600290048015610fd15780601f10610faf576101008083540402835291820191610fd1565b820191906000526020600020905b815481529060010190602001808311610fbd575b505091505060405160208183030381529060405280519060200120145b610ff757600080fd5b6001600082815260200190815260200160002060010160009054906101000a900473ffffffffffffffffffffffffffffffffffffffff1673ffffffffffffffffffffffffffffffffffffffff166108fc349081150290604051600060405180830381858888f19350505050158015611073573d6000803e3d6000fd5b505b5050565b828054600181600116156101000203166002900490600052602060002090601f016020900481019282601f106110ba57805160ff19168380011785556110e8565b828001600101855582156110e8579182015b828111156110e75782518255916020019190600101906110cc565b5b5090506110f591906110f9565b5090565b61111b91905b808211156111175760008160009055506001016110ff565b5090565b9056fea265627a7a723158209806672ba3fa825c2edae5bdd67499145d6a35fa2cdde9951d1a3df4cf9a19c064736f6c634300050c0032",
  "source": "pragma solidity ^0.5.0;\r\n\r\ncontract Gst {\r\n    uint256 public userCount = 0;\r\n    mapping(uint256 => Users) public usersMap;\r\n    struct Users {\r\n        uint256 id;\r\n        address payable addr;\r\n        string firstName;\r\n        string lastName;\r\n        uint256 balance;\r\n        string email;\r\n        string gstNumber;\r\n        string userType;\r\n    }\r\n\r\n    function createAccount(\r\n        uint256 _id,\r\n        string memory _firstName,\r\n        string memory _lastname,\r\n        uint256 _balance,\r\n        string memory _email,\r\n        string memory _gstNumber,\r\n        string memory _userType\r\n    )\r\n        public {\r\n            userCount ++;\r\n            usersMap[userCount] = Users(_id, msg.sender, _firstName, _lastname, _balance, _email, _gstNumber, _userType);\r\n    }\r\n\r\n    function test(uint256 _senderId) public payable{\r\n        usersMap[_senderId].addr.transfer(msg.value);\r\n    }\r\n\r\n    function transferAmount(uint256 _senderId, uint256 _receiverId) public payable {\r\n        if(keccak256(abi.encodePacked((usersMap[_senderId].userType)))  == keccak256(abi.encodePacked(('wholeseller'))) && keccak256(abi.encodePacked((usersMap[_receiverId].userType)))  == keccak256(abi.encodePacked(('merchant')))) {\r\n            require(\r\n            usersMap[_senderId].addr == msg.sender && \r\n            keccak256(abi.encodePacked((usersMap[_senderId].userType)))  == keccak256(abi.encodePacked(('wholeseller'))) && \r\n            keccak256(abi.encodePacked((usersMap[_receiverId].userType)))  == keccak256(abi.encodePacked(('merchant')))\r\n            );\r\n            usersMap[_receiverId].addr.transfer(msg.value);\r\n        }\r\n    }\r\n}",
  "sourcePath": "C:/Users/BE/Desktop/gst_system/contracts/Gst.sol",
  "compiler": {
    "name": "solc",
    "version": "0.5.12+commit.7709ece9.Emscripten.clang"
  },
  "schemaVersion": "3.0.20",
  "updatedAt": "2020-02-10T10:40:53.092Z",
  "networkType": "ethereum",
  "devdoc": {
    "methods": {}
  },
  "userdoc": {
    "methods": {}
  }
}