{
  "contractName": "Gst",
  "abi": [
    {
      "anonymous": false,
      "inputs": [
        {
          "indexed": false,
          "internalType": "uint256",
          "name": "id",
          "type": "uint256"
        },
        {
          "indexed": false,
          "internalType": "address payable",
          "name": "addr",
          "type": "address"
        },
        {
          "indexed": false,
          "internalType": "string",
          "name": "firstName",
          "type": "string"
        },
        {
          "indexed": false,
          "internalType": "string",
          "name": "lastName",
          "type": "string"
        },
        {
          "indexed": false,
          "internalType": "string",
          "name": "email",
          "type": "string"
        },
        {
          "indexed": false,
          "internalType": "string",
          "name": "gstNumber",
          "type": "string"
        },
        {
          "indexed": false,
          "internalType": "string",
          "name": "userType",
          "type": "string"
        }
      ],
      "name": "AccountCreated",
      "type": "event"
    },
    {
      "anonymous": false,
      "inputs": [
        {
          "indexed": false,
          "internalType": "uint256",
          "name": "id",
          "type": "uint256"
        },
        {
          "indexed": false,
          "internalType": "address",
          "name": "receiverAddress",
          "type": "address"
        },
        {
          "indexed": false,
          "internalType": "string",
          "name": "materialSelected",
          "type": "string"
        },
        {
          "indexed": false,
          "internalType": "string",
          "name": "beforeGstAmount",
          "type": "string"
        },
        {
          "indexed": false,
          "internalType": "string",
          "name": "afterGstAmount",
          "type": "string"
        },
        {
          "indexed": false,
          "internalType": "string[]",
          "name": "gstAmount",
          "type": "string[]"
        },
        {
          "indexed": false,
          "internalType": "string",
          "name": "gstPercent",
          "type": "string"
        },
        {
          "indexed": false,
          "internalType": "address",
          "name": "billIssuer",
          "type": "address"
        }
      ],
      "name": "BillCreated",
      "type": "event"
    },
    {
      "constant": true,
      "inputs": [],
      "name": "billCount",
      "outputs": [
        {
          "internalType": "uint256",
          "name": "",
          "type": "uint256"
        }
      ],
      "payable": false,
      "stateMutability": "view",
      "type": "function"
    },
    {
      "constant": true,
      "inputs": [
        {
          "internalType": "uint256",
          "name": "",
          "type": "uint256"
        }
      ],
      "name": "billMap",
      "outputs": [
        {
          "internalType": "uint256",
          "name": "id",
          "type": "uint256"
        },
        {
          "internalType": "address",
          "name": "receiverAddress",
          "type": "address"
        },
        {
          "internalType": "string",
          "name": "materialSelected",
          "type": "string"
        },
        {
          "internalType": "string",
          "name": "beforeGstAmount",
          "type": "string"
        },
        {
          "internalType": "string",
          "name": "afterGstAmount",
          "type": "string"
        },
        {
          "internalType": "string",
          "name": "gstPercent",
          "type": "string"
        },
        {
          "internalType": "address",
          "name": "billIssuer",
          "type": "address"
        }
      ],
      "payable": false,
      "stateMutability": "view",
      "type": "function"
    },
    {
      "constant": true,
      "inputs": [
        {
          "internalType": "uint256",
          "name": "",
          "type": "uint256"
        }
      ],
      "name": "gstAmountValue",
      "outputs": [
        {
          "internalType": "string",
          "name": "",
          "type": "string"
        }
      ],
      "payable": false,
      "stateMutability": "view",
      "type": "function"
    },
    {
      "constant": true,
      "inputs": [],
      "name": "userCount",
      "outputs": [
        {
          "internalType": "uint256",
          "name": "",
          "type": "uint256"
        }
      ],
      "payable": false,
      "stateMutability": "view",
      "type": "function"
    },
    {
      "constant": true,
      "inputs": [
        {
          "internalType": "address",
          "name": "",
          "type": "address"
        }
      ],
      "name": "usersMap",
      "outputs": [
        {
          "internalType": "uint256",
          "name": "id",
          "type": "uint256"
        },
        {
          "internalType": "address payable",
          "name": "addr",
          "type": "address"
        },
        {
          "internalType": "string",
          "name": "firstName",
          "type": "string"
        },
        {
          "internalType": "string",
          "name": "lastName",
          "type": "string"
        },
        {
          "internalType": "string",
          "name": "email",
          "type": "string"
        },
        {
          "internalType": "string",
          "name": "gstNumber",
          "type": "string"
        },
        {
          "internalType": "string",
          "name": "userType",
          "type": "string"
        }
      ],
      "payable": false,
      "stateMutability": "view",
      "type": "function"
    },
    {
      "constant": false,
      "inputs": [
        {
          "internalType": "string",
          "name": "_firstName",
          "type": "string"
        },
        {
          "internalType": "string",
          "name": "_lastname",
          "type": "string"
        },
        {
          "internalType": "string",
          "name": "_email",
          "type": "string"
        },
        {
          "internalType": "string",
          "name": "_gstNumber",
          "type": "string"
        },
        {
          "internalType": "string",
          "name": "_userType",
          "type": "string"
        }
      ],
      "name": "createAccount",
      "outputs": [],
      "payable": false,
      "stateMutability": "nonpayable",
      "type": "function"
    },
    {
      "constant": false,
      "inputs": [
        {
          "internalType": "address",
          "name": "_receiverAddress",
          "type": "address"
        },
        {
          "internalType": "string",
          "name": "_materialSelected",
          "type": "string"
        },
        {
          "internalType": "string",
          "name": "_beforeGstAmount",
          "type": "string"
        },
        {
          "internalType": "string",
          "name": "_afterGstAmount",
          "type": "string"
        },
        {
          "internalType": "string[]",
          "name": "_gstAmount",
          "type": "string[]"
        },
        {
          "internalType": "string",
          "name": "_gstPercent",
          "type": "string"
        },
        {
          "internalType": "address",
          "name": "_billIssuer",
          "type": "address"
        }
      ],
      "name": "generateBill",
      "outputs": [],
      "payable": false,
      "stateMutability": "nonpayable",
      "type": "function"
    },
    {
      "constant": false,
      "inputs": [
        {
          "internalType": "address",
          "name": "_receiver",
          "type": "address"
        }
      ],
      "name": "test",
      "outputs": [],
      "payable": true,
      "stateMutability": "payable",
      "type": "function"
    },
    {
      "constant": true,
      "inputs": [
        {
          "internalType": "uint256",
          "name": "_billId",
          "type": "uint256"
        }
      ],
      "name": "test2",
      "outputs": [
        {
          "internalType": "string[]",
          "name": "",
          "type": "string[]"
        }
      ],
      "payable": false,
      "stateMutability": "view",
      "type": "function"
    }
  ],
  "bytecode": "0x60806040526107d0600055606460015534801561001b57600080fd5b50611a1f8061002b6000396000f3fe6080604052600436106100865760003560e01c806355a2d9fd1161005957806355a2d9fd1461014d578063628feb0214610176578063bb29998e146101b3578063caf44683146101cf578063e281447c1461020c57610086565b806307973ccf1461008b5780630cbf1929146100b657806341dc3412146100f95780634200d03e14610124575b600080fd5b34801561009757600080fd5b506100a061024f565b6040516100ad9190611584565b60405180910390f35b3480156100c257600080fd5b506100dd60048036036100d891908101906113b6565b610255565b6040516100f09796959493929190611764565b60405180910390f35b34801561010557600080fd5b5061010e610537565b60405161011b9190611584565b60405180910390f35b34801561013057600080fd5b5061014b600480360361014691908101906111b1565b61053d565b005b34801561015957600080fd5b50610174600480360361016f91908101906112c7565b610748565b005b34801561018257600080fd5b5061019d600480360361019891908101906113b6565b610914565b6040516101aa9190611562565b60405180910390f35b6101cd60048036036101c89190810190611188565b6109c4565b005b3480156101db57600080fd5b506101f660048036036101f191908101906113b6565b610a70565b6040516102039190611540565b60405180910390f35b34801561021857600080fd5b50610233600480360361022e9190810190611188565b610b6f565b6040516102469796959493929190611631565b60405180910390f35b60005481565b60036020528060005260406000206000915090508060000154908060010160009054906101000a900473ffffffffffffffffffffffffffffffffffffffff1690806002018054600181600116156101000203166002900480601f01602080910402602001604051908101604052809291908181526020018280546001816001161561010002031660029004801561032d5780601f106103025761010080835404028352916020019161032d565b820191906000526020600020905b81548152906001019060200180831161031057829003601f168201915b505050505090806003018054600181600116156101000203166002900480601f0160208091040260200160405190810160405280929190818152602001828054600181600116156101000203166002900480156103cb5780601f106103a0576101008083540402835291602001916103cb565b820191906000526020600020905b8154815290600101906020018083116103ae57829003601f168201915b505050505090806004018054600181600116156101000203166002900480601f0160208091040260200160405190810160405280929190818152602001828054600181600116156101000203166002900480156104695780601f1061043e57610100808354040283529160200191610469565b820191906000526020600020905b81548152906001019060200180831161044c57829003601f168201915b505050505090806006018054600181600116156101000203166002900480601f0160208091040260200160405190810160405280929190818152602001828054600181600116156101000203166002900480156105075780601f106104dc57610100808354040283529160200191610507565b820191906000526020600020905b8154815290600101906020018083116104ea57829003601f168201915b5050505050908060070160009054906101000a900473ffffffffffffffffffffffffffffffffffffffff16905087565b60015481565b60016000815480929190600101919050555060405180610100016040528060015481526020018873ffffffffffffffffffffffffffffffffffffffff1681526020018781526020018681526020018581526020018481526020018381526020018273ffffffffffffffffffffffffffffffffffffffff168152506003600060015481526020019081526020016000206000820151816000015560208201518160010160006101000a81548173ffffffffffffffffffffffffffffffffffffffff021916908373ffffffffffffffffffffffffffffffffffffffff1602179055506040820151816002019080519060200190610639929190610ec9565b506060820151816003019080519060200190610656929190610ec9565b506080820151816004019080519060200190610673929190610ec9565b5060a0820151816005019080519060200190610690929190610f49565b5060c08201518160060190805190602001906106ad929190610ec9565b5060e08201518160070160006101000a81548173ffffffffffffffffffffffffffffffffffffffff021916908373ffffffffffffffffffffffffffffffffffffffff1602179055509050507f2bed57f0c845a3405fbcfaf8b81260bae55c8af4943e87f5d84d9b8ec6b7b594600154888888888888886040516107379897969594939291906116c3565b60405180910390a150505050505050565b60008081548092919060010191905055506040518060e0016040528060005481526020013373ffffffffffffffffffffffffffffffffffffffff16815260200186815260200185815260200184815260200183815260200182815250600260003373ffffffffffffffffffffffffffffffffffffffff1673ffffffffffffffffffffffffffffffffffffffff1681526020019081526020016000206000820151816000015560208201518160010160006101000a81548173ffffffffffffffffffffffffffffffffffffffff021916908373ffffffffffffffffffffffffffffffffffffffff1602179055506040820151816002019080519060200190610850929190610ec9565b50606082015181600301908051906020019061086d929190610ec9565b50608082015181600401908051906020019061088a929190610ec9565b5060a08201518160050190805190602001906108a7929190610ec9565b5060c08201518160060190805190602001906108c4929190610ec9565b509050507f8c4aad3c0960e4ceb0dcda2c906d32232fdc3ca01b231793d5688534fda53614600054338787878787604051610905979695949392919061159f565b60405180910390a15050505050565b6004816002811061092157fe5b016000915090508054600181600116156101000203166002900480601f0160208091040260200160405190810160405280929190818152602001828054600181600116156101000203166002900480156109bc5780601f10610991576101008083540402835291602001916109bc565b820191906000526020600020905b81548152906001019060200180831161099f57829003601f168201915b505050505081565b600260008273ffffffffffffffffffffffffffffffffffffffff1673ffffffffffffffffffffffffffffffffffffffff16815260200190815260200160002060010160009054906101000a900473ffffffffffffffffffffffffffffffffffffffff1673ffffffffffffffffffffffffffffffffffffffff166108fc349081150290604051600060405180830381858888f19350505050158015610a6c573d6000803e3d6000fd5b5050565b606060036000838152602001908152602001600020600501805480602002602001604051908101604052809291908181526020016000905b82821015610b64578382906000526020600020018054600181600116156101000203166002900480601f016020809104026020016040519081016040528092919081815260200182805460018160011615610100020316600290048015610b505780601f10610b2557610100808354040283529160200191610b50565b820191906000526020600020905b815481529060010190602001808311610b3357829003601f168201915b505050505081526020019060010190610aa8565b505050509050919050565b60026020528060005260406000206000915090508060000154908060010160009054906101000a900473ffffffffffffffffffffffffffffffffffffffff1690806002018054600181600116156101000203166002900480601f016020809104026020016040519081016040528092919081815260200182805460018160011615610100020316600290048015610c475780601f10610c1c57610100808354040283529160200191610c47565b820191906000526020600020905b815481529060010190602001808311610c2a57829003601f168201915b505050505090806003018054600181600116156101000203166002900480601f016020809104026020016040519081016040528092919081815260200182805460018160011615610100020316600290048015610ce55780601f10610cba57610100808354040283529160200191610ce5565b820191906000526020600020905b815481529060010190602001808311610cc857829003601f168201915b505050505090806004018054600181600116156101000203166002900480601f016020809104026020016040519081016040528092919081815260200182805460018160011615610100020316600290048015610d835780601f10610d5857610100808354040283529160200191610d83565b820191906000526020600020905b815481529060010190602001808311610d6657829003601f168201915b505050505090806005018054600181600116156101000203166002900480601f016020809104026020016040519081016040528092919081815260200182805460018160011615610100020316600290048015610e215780601f10610df657610100808354040283529160200191610e21565b820191906000526020600020905b815481529060010190602001808311610e0457829003601f168201915b505050505090806006018054600181600116156101000203166002900480601f016020809104026020016040519081016040528092919081815260200182805460018160011615610100020316600290048015610ebf5780601f10610e9457610100808354040283529160200191610ebf565b820191906000526020600020905b815481529060010190602001808311610ea257829003601f168201915b5050505050905087565b828054600181600116156101000203166002900490600052602060002090601f016020900481019282601f10610f0a57805160ff1916838001178555610f38565b82800160010185558215610f38579182015b82811115610f37578251825591602001919060010190610f1c565b5b509050610f459190610fa9565b5090565b828054828255906000526020600020908101928215610f98579160200282015b82811115610f97578251829080519060200190610f87929190610ec9565b5091602001919060010190610f69565b5b509050610fa59190610fce565b5090565b610fcb91905b80821115610fc7576000816000905550600101610faf565b5090565b90565b610ff791905b80821115610ff35760008181610fea9190610ffa565b50600101610fd4565b5090565b90565b50805460018160011615610100020316600290046000825580601f10611020575061103f565b601f01602090049060005260206000209081019061103e9190610fa9565b5b50565b600081359050611051816119ae565b92915050565b600082601f83011261106857600080fd5b813561107b6110768261181c565b6117ef565b9150818183526020840193506020810190508360005b838110156110c157813586016110a788826110cb565b845260208401935060208301925050600181019050611091565b5050505092915050565b600082601f8301126110dc57600080fd5b81356110ef6110ea82611844565b6117ef565b9150808252602083016020830185838301111561110b57600080fd5b61111683828461195b565b50505092915050565b600082601f83011261113057600080fd5b813561114361113e82611870565b6117ef565b9150808252602083016020830185838301111561115f57600080fd5b61116a83828461195b565b50505092915050565b600081359050611182816119c5565b92915050565b60006020828403121561119a57600080fd5b60006111a884828501611042565b91505092915050565b600080600080600080600060e0888a0312156111cc57600080fd5b60006111da8a828b01611042565b975050602088013567ffffffffffffffff8111156111f757600080fd5b6112038a828b0161111f565b965050604088013567ffffffffffffffff81111561122057600080fd5b61122c8a828b0161111f565b955050606088013567ffffffffffffffff81111561124957600080fd5b6112558a828b0161111f565b945050608088013567ffffffffffffffff81111561127257600080fd5b61127e8a828b01611057565b93505060a088013567ffffffffffffffff81111561129b57600080fd5b6112a78a828b0161111f565b92505060c06112b88a828b01611042565b91505092959891949750929550565b600080600080600060a086880312156112df57600080fd5b600086013567ffffffffffffffff8111156112f957600080fd5b6113058882890161111f565b955050602086013567ffffffffffffffff81111561132257600080fd5b61132e8882890161111f565b945050604086013567ffffffffffffffff81111561134b57600080fd5b6113578882890161111f565b935050606086013567ffffffffffffffff81111561137457600080fd5b6113808882890161111f565b925050608086013567ffffffffffffffff81111561139d57600080fd5b6113a98882890161111f565b9150509295509295909350565b6000602082840312156113c857600080fd5b60006113d684828501611173565b91505092915050565b60006113eb83836114bf565b905092915050565b6113fc8161191f565b82525050565b61140b8161190d565b82525050565b600061141c826118ac565b61142681856118da565b9350836020820285016114388561189c565b8060005b85811015611474578484038952815161145585826113df565b9450611460836118cd565b925060208a0199505060018101905061143c565b50829750879550505050505092915050565b6000611491826118c2565b61149b81856118fc565b93506114ab81856020860161196a565b6114b48161199d565b840191505092915050565b60006114ca826118b7565b6114d481856118eb565b93506114e481856020860161196a565b6114ed8161199d565b840191505092915050565b6000611503826118b7565b61150d81856118fc565b935061151d81856020860161196a565b6115268161199d565b840191505092915050565b61153a81611951565b82525050565b6000602082019050818103600083015261155a8184611411565b905092915050565b6000602082019050818103600083015261157c81846114f8565b905092915050565b60006020820190506115996000830184611531565b92915050565b600060e0820190506115b4600083018a611531565b6115c160208301896113f3565b81810360408301526115d38188611486565b905081810360608301526115e78187611486565b905081810360808301526115fb8186611486565b905081810360a083015261160f8185611486565b905081810360c08301526116238184611486565b905098975050505050505050565b600060e082019050611646600083018a611531565b61165360208301896113f3565b818103604083015261166581886114f8565b9050818103606083015261167981876114f8565b9050818103608083015261168d81866114f8565b905081810360a08301526116a181856114f8565b905081810360c08301526116b581846114f8565b905098975050505050505050565b6000610100820190506116d9600083018b611531565b6116e6602083018a611402565b81810360408301526116f88189611486565b9050818103606083015261170c8188611486565b905081810360808301526117208187611486565b905081810360a08301526117348186611411565b905081810360c08301526117488185611486565b905061175760e0830184611402565b9998505050505050505050565b600060e082019050611779600083018a611531565b6117866020830189611402565b818103604083015261179881886114f8565b905081810360608301526117ac81876114f8565b905081810360808301526117c081866114f8565b905081810360a08301526117d481856114f8565b90506117e360c0830184611402565b98975050505050505050565b6000604051905081810181811067ffffffffffffffff8211171561181257600080fd5b8060405250919050565b600067ffffffffffffffff82111561183357600080fd5b602082029050602081019050919050565b600067ffffffffffffffff82111561185b57600080fd5b601f19601f8301169050602081019050919050565b600067ffffffffffffffff82111561188757600080fd5b601f19601f8301169050602081019050919050565b6000819050602082019050919050565b600081519050919050565b600081519050919050565b600081519050919050565b6000602082019050919050565b600082825260208201905092915050565b600082825260208201905092915050565b600082825260208201905092915050565b600061191882611931565b9050919050565b600061192a82611931565b9050919050565b600073ffffffffffffffffffffffffffffffffffffffff82169050919050565b6000819050919050565b82818337600083830152505050565b60005b8381101561198857808201518184015260208101905061196d565b83811115611997576000848401525b50505050565b6000601f19601f8301169050919050565b6119b78161190d565b81146119c257600080fd5b50565b6119ce81611951565b81146119d957600080fd5b5056fea365627a7a72315820e147456eaff620b39e79a991d55b267d27141adf21d9e1a613eeb8a6594c71ed6c6578706572696d656e74616cf564736f6c63430005100040",
  "source": "pragma solidity ^0.5.1;\npragma experimental ABIEncoderV2;\n\ncontract Gst {\n    uint256 public userCount = 2000;\n    uint256 public billCount = 100;\n    mapping(address => Users) public usersMap;\n    mapping(uint256 => Bill) public billMap;\n    string[2] public gstAmountValue;\n    struct Users {\n        uint256 id;\n        address payable addr;\n        string firstName;\n        string lastName;\n        string email;\n        string gstNumber;\n        string userType;\n    }\n\n    struct Bill {\n        uint256 id;\n        address receiverAddress;\n        string materialSelected;\n        string beforeGstAmount;\n        string afterGstAmount;\n        string[] gstAmount;\n        string gstPercent;\n        address billIssuer;\n    }\n\n    event BillCreated (\n        uint256 id,\n        address receiverAddress,\n        string materialSelected,\n        string beforeGstAmount,\n        string afterGstAmount,\n        string[] gstAmount,\n        string gstPercent,\n        address billIssuer\n    );\n\n    event AccountCreated(\n        uint256 id,\n        address payable addr,\n        string firstName,\n        string lastName,\n        string email,\n        string gstNumber,\n        string userType\n    );\n\n    function createAccount(\n        string memory _firstName,\n        string memory _lastname,\n        string memory _email,\n        string memory _gstNumber,\n        string memory _userType\n        )\n        public {\n            userCount ++;\n\n            usersMap[msg.sender] = Users(\n                userCount,\n                msg.sender,\n                _firstName,\n                _lastname,\n                _email,\n                _gstNumber,\n                _userType\n                );\n\n            emit AccountCreated(\n                userCount,\n                msg.sender,\n                _firstName,\n                _lastname,\n                _email,\n                _gstNumber,\n                _userType\n                );\n    }\n\n    function generateBill(\n        address _receiverAddress,\n        string memory _materialSelected,\n        string memory _beforeGstAmount,\n        string memory _afterGstAmount,\n        string[] memory _gstAmount,\n        string memory _gstPercent,\n        address _billIssuer\n        )\n        public {\n            billCount ++;\n\n            billMap[billCount] = Bill(\n                billCount,\n                _receiverAddress,\n                _materialSelected,\n                _beforeGstAmount,\n                _afterGstAmount,\n                _gstAmount,\n                _gstPercent,\n                _billIssuer\n                );\n\n            emit BillCreated(\n                billCount,\n                _receiverAddress,\n                _materialSelected,\n                _beforeGstAmount,\n                _afterGstAmount,\n                _gstAmount,\n                _gstPercent,\n                _billIssuer\n                );\n    }\n\n    function test(address _receiver) public payable{\n        usersMap[_receiver].addr.transfer(msg.value);\n    }\n\n    function test2(uint256 _billId) public view returns(string[] memory) {\n        return billMap[_billId].gstAmount;\n    }\n}",
  "sourcePath": "/home/niranjan/Documents/Niranjan/My Project/gst_system/contracts/Gst.sol",
  "compiler": {
    "name": "solc",
    "version": "0.5.16+commit.9c3226ce.Emscripten.clang"
  },
  "schemaVersion": "3.0.21",
  "updatedAt": "2020-03-22T17:54:53.924Z",
  "networkType": "ethereum",
  "devdoc": {
    "methods": {}
  },
  "userdoc": {
    "methods": {}
  }
}