{
  "contractName": "Gst",
  "abi": [
    {
      "anonymous": false,
      "inputs": [
        {
          "indexed": false,
          "internalType": "uint256",
          "name": "id",
          "type": "uint256"
        },
        {
          "indexed": false,
          "internalType": "address payable",
          "name": "addr",
          "type": "address"
        },
        {
          "indexed": false,
          "internalType": "string",
          "name": "firstName",
          "type": "string"
        },
        {
          "indexed": false,
          "internalType": "string",
          "name": "lastName",
          "type": "string"
        },
        {
          "indexed": false,
          "internalType": "string",
          "name": "email",
          "type": "string"
        },
        {
          "indexed": false,
          "internalType": "string",
          "name": "gstNumber",
          "type": "string"
        },
        {
          "indexed": false,
          "internalType": "string",
          "name": "userType",
          "type": "string"
        }
      ],
      "name": "AccountCreated",
      "type": "event"
    },
    {
      "anonymous": false,
      "inputs": [
        {
          "indexed": false,
          "internalType": "uint256",
          "name": "id",
          "type": "uint256"
        },
        {
          "indexed": false,
          "internalType": "address",
          "name": "receiverAddress",
          "type": "address"
        },
        {
          "indexed": false,
          "internalType": "string",
          "name": "materialSelected",
          "type": "string"
        },
        {
          "indexed": false,
          "internalType": "string",
          "name": "beforeGstAmount",
          "type": "string"
        },
        {
          "indexed": false,
          "internalType": "string",
          "name": "afterGstAmount",
          "type": "string"
        },
        {
          "indexed": false,
          "internalType": "string[]",
          "name": "gstAmount",
          "type": "string[]"
        },
        {
          "indexed": false,
          "internalType": "string",
          "name": "gstPercent",
          "type": "string"
        },
        {
          "indexed": false,
          "internalType": "bool",
          "name": "paid",
          "type": "bool"
        },
        {
          "indexed": false,
          "internalType": "address",
          "name": "billIssuer",
          "type": "address"
        }
      ],
      "name": "BillCreated",
      "type": "event"
    },
    {
      "anonymous": false,
      "inputs": [
        {
          "indexed": false,
          "internalType": "uint256",
          "name": "id",
          "type": "uint256"
        },
        {
          "indexed": false,
          "internalType": "address",
          "name": "receiverAddress",
          "type": "address"
        },
        {
          "indexed": false,
          "internalType": "string",
          "name": "materialSelected",
          "type": "string"
        },
        {
          "indexed": false,
          "internalType": "string",
          "name": "beforeGstAmount",
          "type": "string"
        },
        {
          "indexed": false,
          "internalType": "string",
          "name": "afterGstAmount",
          "type": "string"
        },
        {
          "indexed": false,
          "internalType": "string[]",
          "name": "gstAmount",
          "type": "string[]"
        },
        {
          "indexed": false,
          "internalType": "string",
          "name": "gstPercent",
          "type": "string"
        },
        {
          "indexed": false,
          "internalType": "address",
          "name": "billIssuer",
          "type": "address"
        }
      ],
      "name": "BillPaid",
      "type": "event"
    },
    {
      "anonymous": false,
      "inputs": [
        {
          "indexed": false,
          "internalType": "address payable",
          "name": "addr",
          "type": "address"
        },
        {
          "indexed": false,
          "internalType": "string",
          "name": "govType",
          "type": "string"
        }
      ],
      "name": "GovernmentAccountCreated",
      "type": "event"
    },
    {
      "constant": true,
      "inputs": [],
      "name": "billCount",
      "outputs": [
        {
          "internalType": "uint256",
          "name": "",
          "type": "uint256"
        }
      ],
      "payable": false,
      "stateMutability": "view",
      "type": "function"
    },
    {
      "constant": true,
      "inputs": [
        {
          "internalType": "uint256",
          "name": "",
          "type": "uint256"
        }
      ],
      "name": "billMap",
      "outputs": [
        {
          "internalType": "uint256",
          "name": "id",
          "type": "uint256"
        },
        {
          "internalType": "address",
          "name": "receiverAddress",
          "type": "address"
        },
        {
          "internalType": "string",
          "name": "materialSelected",
          "type": "string"
        },
        {
          "internalType": "string",
          "name": "beforeGstAmount",
          "type": "string"
        },
        {
          "internalType": "string",
          "name": "afterGstAmount",
          "type": "string"
        },
        {
          "internalType": "string",
          "name": "gstPercent",
          "type": "string"
        },
        {
          "internalType": "bool",
          "name": "paid",
          "type": "bool"
        },
        {
          "internalType": "address",
          "name": "billIssuer",
          "type": "address"
        }
      ],
      "payable": false,
      "stateMutability": "view",
      "type": "function"
    },
    {
      "constant": true,
      "inputs": [
        {
          "internalType": "address",
          "name": "",
          "type": "address"
        }
      ],
      "name": "governmentMap",
      "outputs": [
        {
          "internalType": "address payable",
          "name": "addr",
          "type": "address"
        },
        {
          "internalType": "string",
          "name": "govType",
          "type": "string"
        }
      ],
      "payable": false,
      "stateMutability": "view",
      "type": "function"
    },
    {
      "constant": true,
      "inputs": [],
      "name": "userCount",
      "outputs": [
        {
          "internalType": "uint256",
          "name": "",
          "type": "uint256"
        }
      ],
      "payable": false,
      "stateMutability": "view",
      "type": "function"
    },
    {
      "constant": true,
      "inputs": [
        {
          "internalType": "address",
          "name": "",
          "type": "address"
        }
      ],
      "name": "usersMap",
      "outputs": [
        {
          "internalType": "uint256",
          "name": "id",
          "type": "uint256"
        },
        {
          "internalType": "address payable",
          "name": "addr",
          "type": "address"
        },
        {
          "internalType": "string",
          "name": "firstName",
          "type": "string"
        },
        {
          "internalType": "string",
          "name": "lastName",
          "type": "string"
        },
        {
          "internalType": "string",
          "name": "email",
          "type": "string"
        },
        {
          "internalType": "string",
          "name": "gstNumber",
          "type": "string"
        },
        {
          "internalType": "string",
          "name": "userType",
          "type": "string"
        }
      ],
      "payable": false,
      "stateMutability": "view",
      "type": "function"
    },
    {
      "constant": false,
      "inputs": [
        {
          "internalType": "address payable",
          "name": "_addr",
          "type": "address"
        },
        {
          "internalType": "string",
          "name": "_govType",
          "type": "string"
        }
      ],
      "name": "createGovernmentAccount",
      "outputs": [],
      "payable": false,
      "stateMutability": "nonpayable",
      "type": "function"
    },
    {
      "constant": false,
      "inputs": [
        {
          "internalType": "string",
          "name": "_firstName",
          "type": "string"
        },
        {
          "internalType": "string",
          "name": "_lastname",
          "type": "string"
        },
        {
          "internalType": "string",
          "name": "_email",
          "type": "string"
        },
        {
          "internalType": "string",
          "name": "_gstNumber",
          "type": "string"
        },
        {
          "internalType": "string",
          "name": "_userType",
          "type": "string"
        }
      ],
      "name": "createAccount",
      "outputs": [],
      "payable": false,
      "stateMutability": "nonpayable",
      "type": "function"
    },
    {
      "constant": false,
      "inputs": [
        {
          "internalType": "address",
          "name": "_receiverAddress",
          "type": "address"
        },
        {
          "internalType": "string",
          "name": "_materialSelected",
          "type": "string"
        },
        {
          "internalType": "string",
          "name": "_beforeGstAmount",
          "type": "string"
        },
        {
          "internalType": "string",
          "name": "_afterGstAmount",
          "type": "string"
        },
        {
          "internalType": "string[]",
          "name": "_gstAmount",
          "type": "string[]"
        },
        {
          "internalType": "string",
          "name": "_gstPercent",
          "type": "string"
        },
        {
          "internalType": "address",
          "name": "_billIssuer",
          "type": "address"
        }
      ],
      "name": "generateBill",
      "outputs": [],
      "payable": false,
      "stateMutability": "nonpayable",
      "type": "function"
    },
    {
      "constant": false,
      "inputs": [
        {
          "internalType": "address",
          "name": "_receiver",
          "type": "address"
        }
      ],
      "name": "transferAmountToUser",
      "outputs": [],
      "payable": true,
      "stateMutability": "payable",
      "type": "function"
    },
    {
      "constant": false,
      "inputs": [
        {
          "internalType": "address",
          "name": "_sgstAddress",
          "type": "address"
        }
      ],
      "name": "transferAmountToSGST",
      "outputs": [],
      "payable": true,
      "stateMutability": "payable",
      "type": "function"
    },
    {
      "constant": false,
      "inputs": [
        {
          "internalType": "address",
          "name": "_cgstAddress",
          "type": "address"
        }
      ],
      "name": "transferAmountToCGST",
      "outputs": [],
      "payable": true,
      "stateMutability": "payable",
      "type": "function"
    },
    {
      "constant": true,
      "inputs": [
        {
          "internalType": "uint256",
          "name": "_billId",
          "type": "uint256"
        }
      ],
      "name": "gstAmountArray",
      "outputs": [
        {
          "internalType": "string[]",
          "name": "",
          "type": "string[]"
        }
      ],
      "payable": false,
      "stateMutability": "view",
      "type": "function"
    },
    {
      "constant": false,
      "inputs": [
        {
          "internalType": "uint256",
          "name": "_billID",
          "type": "uint256"
        },
        {
          "internalType": "bool",
          "name": "_paidStatus",
          "type": "bool"
        }
      ],
      "name": "paidBill",
      "outputs": [],
      "payable": false,
      "stateMutability": "nonpayable",
      "type": "function"
    }
  ],
  "bytecode": "0x60806040526107d0600055606460015534801561001b57600080fd5b50611f4a8061002b6000396000f3fe6080604052600436106100c25760003560e01c8063548865a71161007f57806397004026116100595780639700402614610230578063a75705e014610259578063aa5bd30e14610297578063e281447c146102d4576100c2565b8063548865a7146101c257806355a2d9fd146101de5780637de9980c14610207576100c2565b806307973ccf146100c75780630cbf1929146100f2578063283449751461013657806341dc3412146101525780634200d03e1461017d57806348377e3a146101a6575b600080fd5b3480156100d357600080fd5b506100dc610317565b6040516100e99190611a57565b60405180910390f35b3480156100fe57600080fd5b5061011960048036036101149190810190611800565b61031d565b60405161012d989796959493929190611c46565b60405180910390f35b610150600480360361014b919081019061157e565b610612565b005b34801561015e57600080fd5b506101676106be565b6040516101749190611a57565b60405180910390f35b34801561018957600080fd5b506101a4600480360361019f91908101906115fb565b6106c4565b005b6101c060048036036101bb919081019061157e565b6108fc565b005b6101dc60048036036101d7919081019061157e565b6109a8565b005b3480156101ea57600080fd5b5061020560048036036102009190810190611711565b610a54565b005b34801561021357600080fd5b5061022e600480360361022991908101906115a7565b610c20565b005b34801561023c57600080fd5b5061025760048036036102529190810190611829565b610d2e565b005b34801561026557600080fd5b50610280600480360361027b919081019061157e565b610d60565b60405161028e9291906119d5565b60405180910390f35b3480156102a357600080fd5b506102be60048036036102b99190810190611800565b610e3c565b6040516102cb9190611a35565b60405180910390f35b3480156102e057600080fd5b506102fb60048036036102f6919081019061157e565b610f3b565b60405161030e9796959493929190611b04565b60405180910390f35b60005481565b60036020528060005260406000206000915090508060000154908060010160009054906101000a900473ffffffffffffffffffffffffffffffffffffffff1690806002018054600181600116156101000203166002900480601f0160208091040260200160405190810160405280929190818152602001828054600181600116156101000203166002900480156103f55780601f106103ca576101008083540402835291602001916103f5565b820191906000526020600020905b8154815290600101906020018083116103d857829003601f168201915b505050505090806003018054600181600116156101000203166002900480601f0160208091040260200160405190810160405280929190818152602001828054600181600116156101000203166002900480156104935780601f1061046857610100808354040283529160200191610493565b820191906000526020600020905b81548152906001019060200180831161047657829003601f168201915b505050505090806004018054600181600116156101000203166002900480601f0160208091040260200160405190810160405280929190818152602001828054600181600116156101000203166002900480156105315780601f1061050657610100808354040283529160200191610531565b820191906000526020600020905b81548152906001019060200180831161051457829003601f168201915b505050505090806006018054600181600116156101000203166002900480601f0160208091040260200160405190810160405280929190818152602001828054600181600116156101000203166002900480156105cf5780601f106105a4576101008083540402835291602001916105cf565b820191906000526020600020905b8154815290600101906020018083116105b257829003601f168201915b5050505050908060070160009054906101000a900460ff16908060070160019054906101000a900473ffffffffffffffffffffffffffffffffffffffff16905088565b600460008273ffffffffffffffffffffffffffffffffffffffff1673ffffffffffffffffffffffffffffffffffffffff16815260200190815260200160002060000160009054906101000a900473ffffffffffffffffffffffffffffffffffffffff1673ffffffffffffffffffffffffffffffffffffffff166108fc349081150290604051600060405180830381858888f193505050501580156106ba573d6000803e3d6000fd5b5050565b60015481565b60016000815480929190600101919050555060405180610120016040528060015481526020018873ffffffffffffffffffffffffffffffffffffffff1681526020018781526020018681526020018581526020018481526020018381526020016000151581526020018273ffffffffffffffffffffffffffffffffffffffff168152506003600060015481526020019081526020016000206000820151816000015560208201518160010160006101000a81548173ffffffffffffffffffffffffffffffffffffffff021916908373ffffffffffffffffffffffffffffffffffffffff16021790555060408201518160020190805190602001906107c9929190611295565b5060608201518160030190805190602001906107e6929190611295565b506080820151816004019080519060200190610803929190611295565b5060a0820151816005019080519060200190610820929190611315565b5060c082015181600601908051906020019061083d929190611295565b5060e08201518160070160006101000a81548160ff0219169083151502179055506101008201518160070160016101000a81548173ffffffffffffffffffffffffffffffffffffffff021916908373ffffffffffffffffffffffffffffffffffffffff1602179055509050507f5c2af1631ab808218ebf5ce8a18ca61b4dab66dfbd62be7ca3594543b39e7c6e6001548888888888886000896040516108eb99989796959493929190611b96565b60405180910390a150505050505050565b600460008273ffffffffffffffffffffffffffffffffffffffff1673ffffffffffffffffffffffffffffffffffffffff16815260200190815260200160002060000160009054906101000a900473ffffffffffffffffffffffffffffffffffffffff1673ffffffffffffffffffffffffffffffffffffffff166108fc349081150290604051600060405180830381858888f193505050501580156109a4573d6000803e3d6000fd5b5050565b600260008273ffffffffffffffffffffffffffffffffffffffff1673ffffffffffffffffffffffffffffffffffffffff16815260200190815260200160002060010160009054906101000a900473ffffffffffffffffffffffffffffffffffffffff1673ffffffffffffffffffffffffffffffffffffffff166108fc349081150290604051600060405180830381858888f19350505050158015610a50573d6000803e3d6000fd5b5050565b60008081548092919060010191905055506040518060e0016040528060005481526020013373ffffffffffffffffffffffffffffffffffffffff16815260200186815260200185815260200184815260200183815260200182815250600260003373ffffffffffffffffffffffffffffffffffffffff1673ffffffffffffffffffffffffffffffffffffffff1681526020019081526020016000206000820151816000015560208201518160010160006101000a81548173ffffffffffffffffffffffffffffffffffffffff021916908373ffffffffffffffffffffffffffffffffffffffff1602179055506040820151816002019080519060200190610b5c929190611295565b506060820151816003019080519060200190610b79929190611295565b506080820151816004019080519060200190610b96929190611295565b5060a0820151816005019080519060200190610bb3929190611295565b5060c0820151816006019080519060200190610bd0929190611295565b509050507f8c4aad3c0960e4ceb0dcda2c906d32232fdc3ca01b231793d5688534fda53614600054338787878787604051610c119796959493929190611a72565b60405180910390a15050505050565b60405180604001604052808373ffffffffffffffffffffffffffffffffffffffff16815260200182815250600460008473ffffffffffffffffffffffffffffffffffffffff1673ffffffffffffffffffffffffffffffffffffffff16815260200190815260200160002060008201518160000160006101000a81548173ffffffffffffffffffffffffffffffffffffffff021916908373ffffffffffffffffffffffffffffffffffffffff1602179055506020820151816001019080519060200190610ced929190611295565b509050507fe399e430f6292e834eaf6b7ac8d72b6d6c6ebc8785787655a10380cdeee48d548282604051610d22929190611a05565b60405180910390a15050565b806003600084815260200190815260200160002060070160006101000a81548160ff0219169083151502179055505050565b60046020528060005260406000206000915090508060000160009054906101000a900473ffffffffffffffffffffffffffffffffffffffff1690806001018054600181600116156101000203166002900480601f016020809104026020016040519081016040528092919081815260200182805460018160011615610100020316600290048015610e325780601f10610e0757610100808354040283529160200191610e32565b820191906000526020600020905b815481529060010190602001808311610e1557829003601f168201915b5050505050905082565b606060036000838152602001908152602001600020600501805480602002602001604051908101604052809291908181526020016000905b82821015610f30578382906000526020600020018054600181600116156101000203166002900480601f016020809104026020016040519081016040528092919081815260200182805460018160011615610100020316600290048015610f1c5780601f10610ef157610100808354040283529160200191610f1c565b820191906000526020600020905b815481529060010190602001808311610eff57829003601f168201915b505050505081526020019060010190610e74565b505050509050919050565b60026020528060005260406000206000915090508060000154908060010160009054906101000a900473ffffffffffffffffffffffffffffffffffffffff1690806002018054600181600116156101000203166002900480601f0160208091040260200160405190810160405280929190818152602001828054600181600116156101000203166002900480156110135780601f10610fe857610100808354040283529160200191611013565b820191906000526020600020905b815481529060010190602001808311610ff657829003601f168201915b505050505090806003018054600181600116156101000203166002900480601f0160208091040260200160405190810160405280929190818152602001828054600181600116156101000203166002900480156110b15780601f10611086576101008083540402835291602001916110b1565b820191906000526020600020905b81548152906001019060200180831161109457829003601f168201915b505050505090806004018054600181600116156101000203166002900480601f01602080910402602001604051908101604052809291908181526020018280546001816001161561010002031660029004801561114f5780601f106111245761010080835404028352916020019161114f565b820191906000526020600020905b81548152906001019060200180831161113257829003601f168201915b505050505090806005018054600181600116156101000203166002900480601f0160208091040260200160405190810160405280929190818152602001828054600181600116156101000203166002900480156111ed5780601f106111c2576101008083540402835291602001916111ed565b820191906000526020600020905b8154815290600101906020018083116111d057829003601f168201915b505050505090806006018054600181600116156101000203166002900480601f01602080910402602001604051908101604052809291908181526020018280546001816001161561010002031660029004801561128b5780601f106112605761010080835404028352916020019161128b565b820191906000526020600020905b81548152906001019060200180831161126e57829003601f168201915b5050505050905087565b828054600181600116156101000203166002900490600052602060002090601f016020900481019282601f106112d657805160ff1916838001178555611304565b82800160010185558215611304579182015b828111156113035782518255916020019190600101906112e8565b5b5090506113119190611375565b5090565b828054828255906000526020600020908101928215611364579160200282015b82811115611363578251829080519060200190611353929190611295565b5091602001919060010190611335565b5b509050611371919061139a565b5090565b61139791905b8082111561139357600081600090555060010161137b565b5090565b90565b6113c391905b808211156113bf57600081816113b691906113c6565b506001016113a0565b5090565b90565b50805460018160011615610100020316600290046000825580601f106113ec575061140b565b601f01602090049060005260206000209081019061140a9190611375565b5b50565b60008135905061141d81611eab565b92915050565b60008135905061143281611ec2565b92915050565b600082601f83011261144957600080fd5b813561145c61145782611d0d565b611ce0565b9150818183526020840193506020810190508360005b838110156114a2578135860161148888826114c1565b845260208401935060208301925050600181019050611472565b5050505092915050565b6000813590506114bb81611ed9565b92915050565b600082601f8301126114d257600080fd5b81356114e56114e082611d35565b611ce0565b9150808252602083016020830185838301111561150157600080fd5b61150c838284611e58565b50505092915050565b600082601f83011261152657600080fd5b813561153961153482611d61565b611ce0565b9150808252602083016020830185838301111561155557600080fd5b611560838284611e58565b50505092915050565b60008135905061157881611ef0565b92915050565b60006020828403121561159057600080fd5b600061159e8482850161140e565b91505092915050565b600080604083850312156115ba57600080fd5b60006115c885828601611423565b925050602083013567ffffffffffffffff8111156115e557600080fd5b6115f185828601611515565b9150509250929050565b600080600080600080600060e0888a03121561161657600080fd5b60006116248a828b0161140e565b975050602088013567ffffffffffffffff81111561164157600080fd5b61164d8a828b01611515565b965050604088013567ffffffffffffffff81111561166a57600080fd5b6116768a828b01611515565b955050606088013567ffffffffffffffff81111561169357600080fd5b61169f8a828b01611515565b945050608088013567ffffffffffffffff8111156116bc57600080fd5b6116c88a828b01611438565b93505060a088013567ffffffffffffffff8111156116e557600080fd5b6116f18a828b01611515565b92505060c06117028a828b0161140e565b91505092959891949750929550565b600080600080600060a0868803121561172957600080fd5b600086013567ffffffffffffffff81111561174357600080fd5b61174f88828901611515565b955050602086013567ffffffffffffffff81111561176c57600080fd5b61177888828901611515565b945050604086013567ffffffffffffffff81111561179557600080fd5b6117a188828901611515565b935050606086013567ffffffffffffffff8111156117be57600080fd5b6117ca88828901611515565b925050608086013567ffffffffffffffff8111156117e757600080fd5b6117f388828901611515565b9150509295509295909350565b60006020828403121561181257600080fd5b600061182084828501611569565b91505092915050565b6000806040838503121561183c57600080fd5b600061184a85828601611569565b925050602061185b858286016114ac565b9150509250929050565b60006118718383611954565b905092915050565b61188281611e10565b82525050565b61189181611dfe565b82525050565b60006118a282611d9d565b6118ac8185611dcb565b9350836020820285016118be85611d8d565b8060005b858110156118fa57848403895281516118db8582611865565b94506118e683611dbe565b925060208a019950506001810190506118c2565b50829750879550505050505092915050565b61191581611e22565b82525050565b600061192682611db3565b6119308185611ded565b9350611940818560208601611e67565b61194981611e9a565b840191505092915050565b600061195f82611da8565b6119698185611ddc565b9350611979818560208601611e67565b61198281611e9a565b840191505092915050565b600061199882611da8565b6119a28185611ded565b93506119b2818560208601611e67565b6119bb81611e9a565b840191505092915050565b6119cf81611e4e565b82525050565b60006040820190506119ea6000830185611879565b81810360208301526119fc818461198d565b90509392505050565b6000604082019050611a1a6000830185611879565b8181036020830152611a2c818461191b565b90509392505050565b60006020820190508181036000830152611a4f8184611897565b905092915050565b6000602082019050611a6c60008301846119c6565b92915050565b600060e082019050611a87600083018a6119c6565b611a946020830189611879565b8181036040830152611aa6818861191b565b90508181036060830152611aba818761191b565b90508181036080830152611ace818661191b565b905081810360a0830152611ae2818561191b565b905081810360c0830152611af6818461191b565b905098975050505050505050565b600060e082019050611b19600083018a6119c6565b611b266020830189611879565b8181036040830152611b38818861198d565b90508181036060830152611b4c818761198d565b90508181036080830152611b60818661198d565b905081810360a0830152611b74818561198d565b905081810360c0830152611b88818461198d565b905098975050505050505050565b600061012082019050611bac600083018c6119c6565b611bb9602083018b611888565b8181036040830152611bcb818a61191b565b90508181036060830152611bdf818961191b565b90508181036080830152611bf3818861191b565b905081810360a0830152611c078187611897565b905081810360c0830152611c1b818661191b565b9050611c2a60e083018561190c565b611c38610100830184611888565b9a9950505050505050505050565b600061010082019050611c5c600083018b6119c6565b611c69602083018a611888565b8181036040830152611c7b818961198d565b90508181036060830152611c8f818861198d565b90508181036080830152611ca3818761198d565b905081810360a0830152611cb7818661198d565b9050611cc660c083018561190c565b611cd360e0830184611888565b9998505050505050505050565b6000604051905081810181811067ffffffffffffffff82111715611d0357600080fd5b8060405250919050565b600067ffffffffffffffff821115611d2457600080fd5b602082029050602081019050919050565b600067ffffffffffffffff821115611d4c57600080fd5b601f19601f8301169050602081019050919050565b600067ffffffffffffffff821115611d7857600080fd5b601f19601f8301169050602081019050919050565b6000819050602082019050919050565b600081519050919050565b600081519050919050565b600081519050919050565b6000602082019050919050565b600082825260208201905092915050565b600082825260208201905092915050565b600082825260208201905092915050565b6000611e0982611e2e565b9050919050565b6000611e1b82611e2e565b9050919050565b60008115159050919050565b600073ffffffffffffffffffffffffffffffffffffffff82169050919050565b6000819050919050565b82818337600083830152505050565b60005b83811015611e85578082015181840152602081019050611e6a565b83811115611e94576000848401525b50505050565b6000601f19601f8301169050919050565b611eb481611dfe565b8114611ebf57600080fd5b50565b611ecb81611e10565b8114611ed657600080fd5b50565b611ee281611e22565b8114611eed57600080fd5b50565b611ef981611e4e565b8114611f0457600080fd5b5056fea365627a7a72315820f3e358a7a4cc6b54cad9c88c920e72a59348cd14d3ed79610e5370e517227bda6c6578706572696d656e74616cf564736f6c63430005100040",
  "source": "pragma solidity ^0.5.1;\npragma experimental ABIEncoderV2;\n\ncontract Gst {\n    uint256 public userCount = 2000;\n    uint256 public billCount = 100;\n    mapping(address => Users) public usersMap;\n    mapping(uint256 => Bill) public billMap;\n    mapping(address => Government) public governmentMap;\n\n    struct Government {\n        address payable addr;\n        string govType;\n    }\n\n    struct Users {\n        uint256 id;\n        address payable addr;\n        string firstName;\n        string lastName;\n        string email;\n        string gstNumber;\n        string userType;\n    }\n\n    struct Bill {\n        uint256 id;\n        address receiverAddress;\n        string materialSelected;\n        string beforeGstAmount;\n        string afterGstAmount;\n        string[] gstAmount;\n        string gstPercent;\n        bool paid;\n        address billIssuer;\n    }\n\n    event GovernmentAccountCreated (\n        address payable addr,\n        string govType\n    );\n\n    event BillCreated (\n        uint256 id,\n        address receiverAddress,\n        string materialSelected,\n        string beforeGstAmount,\n        string afterGstAmount,\n        string[] gstAmount,\n        string gstPercent,\n        bool paid,\n        address billIssuer\n    );\n\n    event AccountCreated(\n        uint256 id,\n        address payable addr,\n        string firstName,\n        string lastName,\n        string email,\n        string gstNumber,\n        string userType\n    );\n    event BillPaid(\n        uint256 id,\n        address receiverAddress,\n        string materialSelected,\n        string beforeGstAmount,\n        string afterGstAmount,\n        string[] gstAmount,\n        string gstPercent,\n        address billIssuer\n    );\n\n    function createGovernmentAccount(address payable _addr, string memory _govType) public {\n        governmentMap[_addr] = Government(_addr, _govType);\n        emit GovernmentAccountCreated(_addr, _govType);\n    }\n\n    function createAccount(\n        string memory _firstName,\n        string memory _lastname,\n        string memory _email,\n        string memory _gstNumber,\n        string memory _userType\n        )\n        public {\n            userCount ++;\n\n            usersMap[msg.sender] = Users(\n                userCount,\n                msg.sender,\n                _firstName,\n                _lastname,\n                _email,\n                _gstNumber,\n                _userType\n                );\n\n            emit AccountCreated(\n                userCount,\n                msg.sender,\n                _firstName,\n                _lastname,\n                _email,\n                _gstNumber,\n                _userType\n                );\n    }\n\n    function generateBill(\n        address _receiverAddress,\n        string memory _materialSelected,\n        string memory _beforeGstAmount,\n        string memory _afterGstAmount,\n        string[] memory _gstAmount,\n        string memory _gstPercent,\n        address _billIssuer\n        )\n        public {\n            billCount ++;\n\n            billMap[billCount] = Bill(\n                billCount,\n                _receiverAddress,\n                _materialSelected,\n                _beforeGstAmount,\n                _afterGstAmount,\n                _gstAmount,\n                _gstPercent,\n                false,\n                _billIssuer\n                );\n\n            emit BillCreated(\n                billCount,\n                _receiverAddress,\n                _materialSelected,\n                _beforeGstAmount,\n                _afterGstAmount,\n                _gstAmount,\n                _gstPercent,\n                false,\n                _billIssuer\n                );\n    }\n\n    function transferAmountToUser(address _receiver) public payable {\n        usersMap[_receiver].addr.transfer(msg.value);\n    }\n\n    function transferAmountToSGST(address _sgstAddress) public payable {\n        governmentMap[_sgstAddress].addr.transfer(msg.value);\n    }\n\n    function transferAmountToCGST(address _cgstAddress) public payable {\n        governmentMap[_cgstAddress].addr.transfer(msg.value);\n    }\n\n    function gstAmountArray(uint256 _billId) public view returns(string[] memory) {\n        return billMap[_billId].gstAmount;\n    }\n    function paidBill(uint256 _billID, bool _paidStatus) public {\n        billMap[_billID].paid = _paidStatus;\n    }\n}",
  "sourcePath": "/home/niranjan/Documents/Niranjan/My Project/gst_system/contracts/Gst.sol",
  "compiler": {
    "name": "solc",
    "version": "0.5.16+commit.9c3226ce.Emscripten.clang"
  },
  "schemaVersion": "3.0.21",
  "updatedAt": "2020-04-01T16:37:15.070Z",
  "networkType": "ethereum",
  "devdoc": {
    "methods": {}
  },
  "userdoc": {
    "methods": {}
  }
}