{
  "contractName": "Gst",
  "abi": [
    {
      "anonymous": false,
      "inputs": [
        {
          "indexed": false,
          "internalType": "uint256",
          "name": "id",
          "type": "uint256"
        },
        {
          "indexed": false,
          "internalType": "address payable",
          "name": "addr",
          "type": "address"
        },
        {
          "indexed": false,
          "internalType": "string",
          "name": "firstName",
          "type": "string"
        },
        {
          "indexed": false,
          "internalType": "string",
          "name": "lastName",
          "type": "string"
        },
        {
          "indexed": false,
          "internalType": "string",
          "name": "email",
          "type": "string"
        },
        {
          "indexed": false,
          "internalType": "string",
          "name": "gstNumber",
          "type": "string"
        },
        {
          "indexed": false,
          "internalType": "string",
          "name": "userType",
          "type": "string"
        }
      ],
      "name": "AccountCreated",
      "type": "event"
    },
    {
      "constant": true,
      "inputs": [],
      "name": "userCount",
      "outputs": [
        {
          "internalType": "uint256",
          "name": "",
          "type": "uint256"
        }
      ],
      "payable": false,
      "stateMutability": "view",
      "type": "function"
    },
    {
      "constant": true,
      "inputs": [
        {
          "internalType": "uint256",
          "name": "",
          "type": "uint256"
        }
      ],
      "name": "usersMap",
      "outputs": [
        {
          "internalType": "uint256",
          "name": "id",
          "type": "uint256"
        },
        {
          "internalType": "address payable",
          "name": "addr",
          "type": "address"
        },
        {
          "internalType": "string",
          "name": "firstName",
          "type": "string"
        },
        {
          "internalType": "string",
          "name": "lastName",
          "type": "string"
        },
        {
          "internalType": "string",
          "name": "email",
          "type": "string"
        },
        {
          "internalType": "string",
          "name": "gstNumber",
          "type": "string"
        },
        {
          "internalType": "string",
          "name": "userType",
          "type": "string"
        }
      ],
      "payable": false,
      "stateMutability": "view",
      "type": "function"
    },
    {
      "constant": false,
      "inputs": [
        {
          "internalType": "uint256",
          "name": "_id",
          "type": "uint256"
        },
        {
          "internalType": "string",
          "name": "_firstName",
          "type": "string"
        },
        {
          "internalType": "string",
          "name": "_lastname",
          "type": "string"
        },
        {
          "internalType": "string",
          "name": "_email",
          "type": "string"
        },
        {
          "internalType": "string",
          "name": "_gstNumber",
          "type": "string"
        },
        {
          "internalType": "string",
          "name": "_userType",
          "type": "string"
        }
      ],
      "name": "createAccount",
      "outputs": [],
      "payable": false,
      "stateMutability": "nonpayable",
      "type": "function"
    },
    {
      "constant": false,
      "inputs": [
        {
          "internalType": "uint256",
          "name": "_senderId",
          "type": "uint256"
        }
      ],
      "name": "test",
      "outputs": [],
      "payable": true,
      "stateMutability": "payable",
      "type": "function"
    },
    {
      "constant": false,
      "inputs": [
        {
          "internalType": "uint256",
          "name": "_senderId",
          "type": "uint256"
        },
        {
          "internalType": "uint256",
          "name": "_receiverId",
          "type": "uint256"
        }
      ],
      "name": "transferAmount",
      "outputs": [],
      "payable": true,
      "stateMutability": "payable",
      "type": "function"
    }
  ],
  "bytecode": "0x60806040526000805534801561001457600080fd5b506113b6806100246000396000f3fe60806040526004361061004a5760003560e01c806307973ccf1461004f5780630f32001c1461007a57806329e99f0714610318578063973056d814610346578063ca928efb14610674575b600080fd5b34801561005b57600080fd5b506100646106ac565b6040518082815260200191505060405180910390f35b34801561008657600080fd5b506100b36004803603602081101561009d57600080fd5b81019080803590602001909291905050506106b2565b604051808881526020018773ffffffffffffffffffffffffffffffffffffffff1673ffffffffffffffffffffffffffffffffffffffff168152602001806020018060200180602001806020018060200186810386528b818151815260200191508051906020019080838360005b8381101561013b578082015181840152602081019050610120565b50505050905090810190601f1680156101685780820380516001836020036101000a031916815260200191505b5086810385528a818151815260200191508051906020019080838360005b838110156101a1578082015181840152602081019050610186565b50505050905090810190601f1680156101ce5780820380516001836020036101000a031916815260200191505b50868103845289818151815260200191508051906020019080838360005b838110156102075780820151818401526020810190506101ec565b50505050905090810190601f1680156102345780820380516001836020036101000a031916815260200191505b50868103835288818151815260200191508051906020019080838360005b8381101561026d578082015181840152602081019050610252565b50505050905090810190601f16801561029a5780820380516001836020036101000a031916815260200191505b50868103825287818151815260200191508051906020019080838360005b838110156102d35780820151818401526020810190506102b8565b50505050905090810190601f1680156103005780820380516001836020036101000a031916815260200191505b509c5050505050505050505050505060405180910390f35b6103446004803603602081101561032e57600080fd5b8101908080359060200190929190505050610a0c565b005b34801561035257600080fd5b50610672600480360360c081101561036957600080fd5b81019080803590602001909291908035906020019064010000000081111561039057600080fd5b8201836020820111156103a257600080fd5b803590602001918460018302840111640100000000831117156103c457600080fd5b91908080601f016020809104026020016040519081016040528093929190818152602001838380828437600081840152601f19601f8201169050808301925050505050505091929192908035906020019064010000000081111561042757600080fd5b82018360208201111561043957600080fd5b8035906020019184600183028401116401000000008311171561045b57600080fd5b91908080601f016020809104026020016040519081016040528093929190818152602001838380828437600081840152601f19601f820116905080830192505050505050509192919290803590602001906401000000008111156104be57600080fd5b8201836020820111156104d057600080fd5b803590602001918460018302840111640100000000831117156104f257600080fd5b91908080601f016020809104026020016040519081016040528093929190818152602001838380828437600081840152601f19601f8201169050808301925050505050505091929192908035906020019064010000000081111561055557600080fd5b82018360208201111561056757600080fd5b8035906020019184600183028401116401000000008311171561058957600080fd5b91908080601f016020809104026020016040519081016040528093929190818152602001838380828437600081840152601f19601f820116905080830192505050505050509192919290803590602001906401000000008111156105ec57600080fd5b8201836020820111156105fe57600080fd5b8035906020019184600183028401116401000000008311171561062057600080fd5b91908080601f016020809104026020016040519081016040528093929190818152602001838380828437600081840152601f19601f820116905080830192505050505050509192919290505050610a8c565b005b6106aa6004803603604081101561068a57600080fd5b810190808035906020019092919080359060200190929190505050610e73565b005b60005481565b60016020528060005260406000206000915090508060000154908060010160009054906101000a900473ffffffffffffffffffffffffffffffffffffffff1690806002018054600181600116156101000203166002900480601f01602080910402602001604051908101604052809291908181526020018280546001816001161561010002031660029004801561078a5780601f1061075f5761010080835404028352916020019161078a565b820191906000526020600020905b81548152906001019060200180831161076d57829003601f168201915b505050505090806003018054600181600116156101000203166002900480601f0160208091040260200160405190810160405280929190818152602001828054600181600116156101000203166002900480156108285780601f106107fd57610100808354040283529160200191610828565b820191906000526020600020905b81548152906001019060200180831161080b57829003601f168201915b505050505090806004018054600181600116156101000203166002900480601f0160208091040260200160405190810160405280929190818152602001828054600181600116156101000203166002900480156108c65780601f1061089b576101008083540402835291602001916108c6565b820191906000526020600020905b8154815290600101906020018083116108a957829003601f168201915b505050505090806005018054600181600116156101000203166002900480601f0160208091040260200160405190810160405280929190818152602001828054600181600116156101000203166002900480156109645780601f1061093957610100808354040283529160200191610964565b820191906000526020600020905b81548152906001019060200180831161094757829003601f168201915b505050505090806006018054600181600116156101000203166002900480601f016020809104026020016040519081016040528092919081815260200182805460018160011615610100020316600290048015610a025780601f106109d757610100808354040283529160200191610a02565b820191906000526020600020905b8154815290600101906020018083116109e557829003601f168201915b5050505050905087565b6001600082815260200190815260200160002060010160009054906101000a900473ffffffffffffffffffffffffffffffffffffffff1673ffffffffffffffffffffffffffffffffffffffff166108fc349081150290604051600060405180830381858888f19350505050158015610a88573d6000803e3d6000fd5b5050565b60008081548092919060010191905055506040518060e001604052808781526020013373ffffffffffffffffffffffffffffffffffffffff1681526020018681526020018581526020018481526020018381526020018281525060016000805481526020019081526020016000206000820151816000015560208201518160010160006101000a81548173ffffffffffffffffffffffffffffffffffffffff021916908373ffffffffffffffffffffffffffffffffffffffff1602179055506040820151816002019080519060200190610b679291906112dc565b506060820151816003019080519060200190610b849291906112dc565b506080820151816004019080519060200190610ba19291906112dc565b5060a0820151816005019080519060200190610bbe9291906112dc565b5060c0820151816006019080519060200190610bdb9291906112dc565b509050507f8c4aad3c0960e4ceb0dcda2c906d32232fdc3ca01b231793d5688534fda5361486338787878787604051808881526020018773ffffffffffffffffffffffffffffffffffffffff1673ffffffffffffffffffffffffffffffffffffffff168152602001806020018060200180602001806020018060200186810386528b818151815260200191508051906020019080838360005b83811015610c8f578082015181840152602081019050610c74565b50505050905090810190601f168015610cbc5780820380516001836020036101000a031916815260200191505b5086810385528a818151815260200191508051906020019080838360005b83811015610cf5578082015181840152602081019050610cda565b50505050905090810190601f168015610d225780820380516001836020036101000a031916815260200191505b50868103845289818151815260200191508051906020019080838360005b83811015610d5b578082015181840152602081019050610d40565b50505050905090810190601f168015610d885780820380516001836020036101000a031916815260200191505b50868103835288818151815260200191508051906020019080838360005b83811015610dc1578082015181840152602081019050610da6565b50505050905090810190601f168015610dee5780820380516001836020036101000a031916815260200191505b50868103825287818151815260200191508051906020019080838360005b83811015610e27578082015181840152602081019050610e0c565b50505050905090810190601f168015610e545780820380516001836020036101000a031916815260200191505b509c5050505050505050505050505060405180910390a1505050505050565b60405160200180807f77686f6c6573656c6c6572000000000000000000000000000000000000000000815250600b01905060405160208183030381529060405280519060200120600160008481526020019081526020016000206006016040516020018082805460018160011615610100020316600290048015610f2e5780601f10610f0c576101008083540402835291820191610f2e565b820191906000526020600020905b815481529060010190602001808311610f1a575b505091505060405160208183030381529060405280519060200120148015611029575060405160200180807f6d65726368616e7400000000000000000000000000000000000000000000000081525060080190506040516020818303038152906040528051906020012060016000838152602001908152602001600020600601604051602001808280546001816001161561010002031660029004801561100c5780601f10610fea57610100808354040283529182019161100c565b820191906000526020600020905b815481529060010190602001808311610ff8575b505091505060405160208183030381529060405280519060200120145b156112d8573373ffffffffffffffffffffffffffffffffffffffff166001600084815260200190815260200160002060010160009054906101000a900473ffffffffffffffffffffffffffffffffffffffff1673ffffffffffffffffffffffffffffffffffffffff16148015611172575060405160200180807f77686f6c6573656c6c6572000000000000000000000000000000000000000000815250600b019050604051602081830303815290604052805190602001206001600084815260200190815260200160002060060160405160200180828054600181600116156101000203166002900480156111555780601f10611133576101008083540402835291820191611155565b820191906000526020600020905b815481529060010190602001808311611141575b505091505060405160208183030381529060405280519060200120145b8015611251575060405160200180807f6d65726368616e740000000000000000000000000000000000000000000000008152506008019050604051602081830303815290604052805190602001206001600083815260200190815260200160002060060160405160200180828054600181600116156101000203166002900480156112345780601f10611212576101008083540402835291820191611234565b820191906000526020600020905b815481529060010190602001808311611220575b505091505060405160208183030381529060405280519060200120145b61125a57600080fd5b6001600082815260200190815260200160002060010160009054906101000a900473ffffffffffffffffffffffffffffffffffffffff1673ffffffffffffffffffffffffffffffffffffffff166108fc349081150290604051600060405180830381858888f193505050501580156112d6573d6000803e3d6000fd5b505b5050565b828054600181600116156101000203166002900490600052602060002090601f016020900481019282601f1061131d57805160ff191683800117855561134b565b8280016001018555821561134b579182015b8281111561134a57825182559160200191906001019061132f565b5b509050611358919061135c565b5090565b61137e91905b8082111561137a576000816000905550600101611362565b5090565b9056fea265627a7a7231582038f46b0b446179ea3de1d4540c65964101ecc7f6d3fc94b72eeff16457a81fbd64736f6c63430005100032",
  "source": "pragma solidity ^0.5.0;\n\ncontract Gst {\n    uint256 public userCount = 0;\n    mapping(uint256 => Users) public usersMap;\n    struct Users {\n        uint256 id;\n        address payable addr;\n        string firstName;\n        string lastName;\n        string email;\n        string gstNumber;\n        string userType;\n    }\n\n    event AccountCreated(\n        uint256 id,\n        address payable addr,\n        string firstName,\n        string lastName,\n        string email,\n        string gstNumber,\n        string userType\n    );\n\n    function createAccount(\n        uint256 _id,\n        string memory _firstName,\n        string memory _lastname,\n        string memory _email,\n        string memory _gstNumber,\n        string memory _userType\n    )\n        public {\n            userCount ++;\n            usersMap[userCount] = Users(_id, msg.sender, _firstName, _lastname, _email, _gstNumber, _userType);\n            emit AccountCreated(_id, msg.sender, _firstName, _lastname, _email, _gstNumber, _userType);\n    }\n\n    function test(uint256 _senderId) public payable{\n        usersMap[_senderId].addr.transfer(msg.value);\n    }\n\n    function transferAmount(uint256 _senderId, uint256 _receiverId) public payable {\n        if(keccak256(abi.encodePacked((usersMap[_senderId].userType)))  == keccak256(abi.encodePacked(('wholeseller'))) && keccak256(abi.encodePacked((usersMap[_receiverId].userType)))  == keccak256(abi.encodePacked(('merchant')))) {\n            require(\n            usersMap[_senderId].addr == msg.sender && \n            keccak256(abi.encodePacked((usersMap[_senderId].userType)))  == keccak256(abi.encodePacked(('wholeseller'))) && \n            keccak256(abi.encodePacked((usersMap[_receiverId].userType)))  == keccak256(abi.encodePacked(('merchant')))\n            );\n            usersMap[_receiverId].addr.transfer(msg.value);\n        }\n    }\n}",
  "sourcePath": "/home/niranjan/Documents/Niranjan/My Project/gst_system/contracts/Gst.sol",
  "compiler": {
    "name": "solc",
    "version": "0.5.16+commit.9c3226ce.Emscripten.clang"
  },
  "schemaVersion": "3.0.21",
  "updatedAt": "2020-02-12T15:28:12.528Z",
  "networkType": "ethereum",
  "devdoc": {
    "methods": {}
  },
  "userdoc": {
    "methods": {}
  }
}