{
  "contractName": "Gst",
  "abi": [
    {
      "anonymous": false,
      "inputs": [
        {
          "indexed": false,
          "internalType": "address payable",
          "name": "addr",
          "type": "address"
        },
        {
          "indexed": false,
          "internalType": "string",
          "name": "firstName",
          "type": "string"
        },
        {
          "indexed": false,
          "internalType": "string",
          "name": "lastName",
          "type": "string"
        },
        {
          "indexed": false,
          "internalType": "string",
          "name": "email",
          "type": "string"
        },
        {
          "indexed": false,
          "internalType": "string",
          "name": "gstNumber",
          "type": "string"
        },
        {
          "indexed": false,
          "internalType": "string",
          "name": "userType",
          "type": "string"
        }
      ],
      "name": "AccountCreated",
      "type": "event"
    },
    {
      "anonymous": false,
      "inputs": [
        {
          "indexed": false,
          "internalType": "uint256",
          "name": "id",
          "type": "uint256"
        },
        {
          "indexed": false,
          "internalType": "address",
          "name": "receiverAddress",
          "type": "address"
        },
        {
          "indexed": false,
          "internalType": "string",
          "name": "materialSelected",
          "type": "string"
        },
        {
          "indexed": false,
          "internalType": "string",
          "name": "totalAmount",
          "type": "string"
        },
        {
          "indexed": false,
          "internalType": "address",
          "name": "billIssuer",
          "type": "address"
        }
      ],
      "name": "BillCreated",
      "type": "event"
    },
    {
      "constant": true,
      "inputs": [],
      "name": "billCount",
      "outputs": [
        {
          "internalType": "uint256",
          "name": "",
          "type": "uint256"
        }
      ],
      "payable": false,
      "stateMutability": "view",
      "type": "function"
    },
    {
      "constant": true,
      "inputs": [
        {
          "internalType": "uint256",
          "name": "",
          "type": "uint256"
        }
      ],
      "name": "billMap",
      "outputs": [
        {
          "internalType": "uint256",
          "name": "id",
          "type": "uint256"
        },
        {
          "internalType": "address",
          "name": "receiverAddress",
          "type": "address"
        },
        {
          "internalType": "string",
          "name": "materialSelected",
          "type": "string"
        },
        {
          "internalType": "string",
          "name": "totalAmount",
          "type": "string"
        },
        {
          "internalType": "address",
          "name": "billIssuer",
          "type": "address"
        }
      ],
      "payable": false,
      "stateMutability": "view",
      "type": "function"
    },
    {
      "constant": true,
      "inputs": [],
      "name": "userCount",
      "outputs": [
        {
          "internalType": "uint256",
          "name": "",
          "type": "uint256"
        }
      ],
      "payable": false,
      "stateMutability": "view",
      "type": "function"
    },
    {
      "constant": true,
      "inputs": [
        {
          "internalType": "address",
          "name": "",
          "type": "address"
        }
      ],
      "name": "usersMap",
      "outputs": [
        {
          "internalType": "address payable",
          "name": "addr",
          "type": "address"
        },
        {
          "internalType": "string",
          "name": "firstName",
          "type": "string"
        },
        {
          "internalType": "string",
          "name": "lastName",
          "type": "string"
        },
        {
          "internalType": "string",
          "name": "email",
          "type": "string"
        },
        {
          "internalType": "string",
          "name": "gstNumber",
          "type": "string"
        },
        {
          "internalType": "string",
          "name": "userType",
          "type": "string"
        }
      ],
      "payable": false,
      "stateMutability": "view",
      "type": "function"
    },
    {
      "constant": false,
      "inputs": [
        {
          "internalType": "string",
          "name": "_firstName",
          "type": "string"
        },
        {
          "internalType": "string",
          "name": "_lastname",
          "type": "string"
        },
        {
          "internalType": "string",
          "name": "_email",
          "type": "string"
        },
        {
          "internalType": "string",
          "name": "_gstNumber",
          "type": "string"
        },
        {
          "internalType": "string",
          "name": "_userType",
          "type": "string"
        }
      ],
      "name": "createAccount",
      "outputs": [],
      "payable": false,
      "stateMutability": "nonpayable",
      "type": "function"
    },
    {
      "constant": false,
      "inputs": [
        {
          "internalType": "address",
          "name": "_receiverAddress",
          "type": "address"
        },
        {
          "internalType": "string",
          "name": "_materialSelected",
          "type": "string"
        },
        {
          "internalType": "string",
          "name": "_totalAmount",
          "type": "string"
        },
        {
          "internalType": "address",
          "name": "_billIssuer",
          "type": "address"
        }
      ],
      "name": "generateBill",
      "outputs": [],
      "payable": false,
      "stateMutability": "nonpayable",
      "type": "function"
    },
    {
      "constant": false,
      "inputs": [
        {
          "internalType": "address",
          "name": "_receiver",
          "type": "address"
        }
      ],
      "name": "test",
      "outputs": [],
      "payable": true,
      "stateMutability": "payable",
      "type": "function"
    },
    {
      "constant": false,
      "inputs": [
        {
          "internalType": "address",
          "name": "_receiverAddress",
          "type": "address"
        }
      ],
      "name": "transferAmount",
      "outputs": [],
      "payable": true,
      "stateMutability": "payable",
      "type": "function"
    }
  ],
  "bytecode": "0x608060405260008055606460015534801561001957600080fd5b50611b0e806100296000396000f3fe60806040526004361061007b5760003560e01c806373dc8b321161004e57806373dc8b32146105875780639717552f14610726578063bb29998e1461076a578063e281447c146107ae5761007b565b806307973ccf146100805780630cbf1929146100ab57806341dc34121461023857806355a2d9fd14610263575b600080fd5b34801561008c57600080fd5b50610095610a5b565b6040518082815260200191505060405180910390f35b3480156100b757600080fd5b506100e4600480360360208110156100ce57600080fd5b8101908080359060200190929190505050610a61565b604051808681526020018573ffffffffffffffffffffffffffffffffffffffff1673ffffffffffffffffffffffffffffffffffffffff16815260200180602001806020018473ffffffffffffffffffffffffffffffffffffffff1673ffffffffffffffffffffffffffffffffffffffff168152602001838103835286818151815260200191508051906020019080838360005b83811015610192578082015181840152602081019050610177565b50505050905090810190601f1680156101bf5780820380516001836020036101000a031916815260200191505b50838103825285818151815260200191508051906020019080838360005b838110156101f85780820151818401526020810190506101dd565b50505050905090810190601f1680156102255780820380516001836020036101000a031916815260200191505b5097505050505050505060405180910390f35b34801561024457600080fd5b5061024d610c07565b6040518082815260200191505060405180910390f35b34801561026f57600080fd5b50610585600480360360a081101561028657600080fd5b81019080803590602001906401000000008111156102a357600080fd5b8201836020820111156102b557600080fd5b803590602001918460018302840111640100000000831117156102d757600080fd5b91908080601f016020809104026020016040519081016040528093929190818152602001838380828437600081840152601f19601f8201169050808301925050505050505091929192908035906020019064010000000081111561033a57600080fd5b82018360208201111561034c57600080fd5b8035906020019184600183028401116401000000008311171561036e57600080fd5b91908080601f016020809104026020016040519081016040528093929190818152602001838380828437600081840152601f19601f820116905080830192505050505050509192919290803590602001906401000000008111156103d157600080fd5b8201836020820111156103e357600080fd5b8035906020019184600183028401116401000000008311171561040557600080fd5b91908080601f016020809104026020016040519081016040528093929190818152602001838380828437600081840152601f19601f8201169050808301925050505050505091929192908035906020019064010000000081111561046857600080fd5b82018360208201111561047a57600080fd5b8035906020019184600183028401116401000000008311171561049c57600080fd5b91908080601f016020809104026020016040519081016040528093929190818152602001838380828437600081840152601f19601f820116905080830192505050505050509192919290803590602001906401000000008111156104ff57600080fd5b82018360208201111561051157600080fd5b8035906020019184600183028401116401000000008311171561053357600080fd5b91908080601f016020809104026020016040519081016040528093929190818152602001838380828437600081840152601f19601f820116905080830192505050505050509192919290505050610c0d565b005b34801561059357600080fd5b50610724600480360360808110156105aa57600080fd5b81019080803573ffffffffffffffffffffffffffffffffffffffff169060200190929190803590602001906401000000008111156105e757600080fd5b8201836020820111156105f957600080fd5b8035906020019184600183028401116401000000008311171561061b57600080fd5b91908080601f016020809104026020016040519081016040528093929190818152602001838380828437600081840152601f19601f8201169050808301925050505050505091929192908035906020019064010000000081111561067e57600080fd5b82018360208201111561069057600080fd5b803590602001918460018302840111640100000000831117156106b257600080fd5b91908080601f016020809104026020016040519081016040528093929190818152602001838380828437600081840152601f19601f820116905080830192505050505050509192919290803573ffffffffffffffffffffffffffffffffffffffff169060200190929190505050611006565b005b6107686004803603602081101561073c57600080fd5b81019080803573ffffffffffffffffffffffffffffffffffffffff1690602001909291905050506112d8565b005b6107ac6004803603602081101561078057600080fd5b81019080803573ffffffffffffffffffffffffffffffffffffffff169060200190929190505050611634565b005b3480156107ba57600080fd5b506107fd600480360360208110156107d157600080fd5b81019080803573ffffffffffffffffffffffffffffffffffffffff1690602001909291905050506116e0565b604051808773ffffffffffffffffffffffffffffffffffffffff1673ffffffffffffffffffffffffffffffffffffffff168152602001806020018060200180602001806020018060200186810386528b818151815260200191508051906020019080838360005b8381101561087f578082015181840152602081019050610864565b50505050905090810190601f1680156108ac5780820380516001836020036101000a031916815260200191505b5086810385528a818151815260200191508051906020019080838360005b838110156108e55780820151818401526020810190506108ca565b50505050905090810190601f1680156109125780820380516001836020036101000a031916815260200191505b50868103845289818151815260200191508051906020019080838360005b8381101561094b578082015181840152602081019050610930565b50505050905090810190601f1680156109785780820380516001836020036101000a031916815260200191505b50868103835288818151815260200191508051906020019080838360005b838110156109b1578082015181840152602081019050610996565b50505050905090810190601f1680156109de5780820380516001836020036101000a031916815260200191505b50868103825287818151815260200191508051906020019080838360005b83811015610a175780820151818401526020810190506109fc565b50505050905090810190601f168015610a445780820380516001836020036101000a031916815260200191505b509b50505050505050505050505060405180910390f35b60005481565b60036020528060005260406000206000915090508060000154908060010160009054906101000a900473ffffffffffffffffffffffffffffffffffffffff1690806002018054600181600116156101000203166002900480601f016020809104026020016040519081016040528092919081815260200182805460018160011615610100020316600290048015610b395780601f10610b0e57610100808354040283529160200191610b39565b820191906000526020600020905b815481529060010190602001808311610b1c57829003601f168201915b505050505090806003018054600181600116156101000203166002900480601f016020809104026020016040519081016040528092919081815260200182805460018160011615610100020316600290048015610bd75780601f10610bac57610100808354040283529160200191610bd7565b820191906000526020600020905b815481529060010190602001808311610bba57829003601f168201915b5050505050908060040160009054906101000a900473ffffffffffffffffffffffffffffffffffffffff16905085565b60015481565b60008081548092919060010191905055506040518060c001604052803373ffffffffffffffffffffffffffffffffffffffff16815260200186815260200185815260200184815260200183815260200182815250600260003373ffffffffffffffffffffffffffffffffffffffff1673ffffffffffffffffffffffffffffffffffffffff16815260200190815260200160002060008201518160000160006101000a81548173ffffffffffffffffffffffffffffffffffffffff021916908373ffffffffffffffffffffffffffffffffffffffff1602179055506020820151816001019080519060200190610d03929190611a34565b506040820151816002019080519060200190610d20929190611a34565b506060820151816003019080519060200190610d3d929190611a34565b506080820151816004019080519060200190610d5a929190611a34565b5060a0820151816005019080519060200190610d77929190611a34565b509050507fb3b146b7ffc458adac1436d8ecf9955666210dcacb2f4d2091aa18b028c2b95a338686868686604051808773ffffffffffffffffffffffffffffffffffffffff1673ffffffffffffffffffffffffffffffffffffffff168152602001806020018060200180602001806020018060200186810386528b818151815260200191508051906020019080838360005b83811015610e24578082015181840152602081019050610e09565b50505050905090810190601f168015610e515780820380516001836020036101000a031916815260200191505b5086810385528a818151815260200191508051906020019080838360005b83811015610e8a578082015181840152602081019050610e6f565b50505050905090810190601f168015610eb75780820380516001836020036101000a031916815260200191505b50868103845289818151815260200191508051906020019080838360005b83811015610ef0578082015181840152602081019050610ed5565b50505050905090810190601f168015610f1d5780820380516001836020036101000a031916815260200191505b50868103835288818151815260200191508051906020019080838360005b83811015610f56578082015181840152602081019050610f3b565b50505050905090810190601f168015610f835780820380516001836020036101000a031916815260200191505b50868103825287818151815260200191508051906020019080838360005b83811015610fbc578082015181840152602081019050610fa1565b50505050905090810190601f168015610fe95780820380516001836020036101000a031916815260200191505b509b50505050505050505050505060405180910390a15050505050565b6001600081548092919060010191905055506040518060a0016040528060015481526020018573ffffffffffffffffffffffffffffffffffffffff1681526020018481526020018381526020018273ffffffffffffffffffffffffffffffffffffffff168152506003600060015481526020019081526020016000206000820151816000015560208201518160010160006101000a81548173ffffffffffffffffffffffffffffffffffffffff021916908373ffffffffffffffffffffffffffffffffffffffff16021790555060408201518160020190805190602001906110ef929190611a34565b50606082015181600301908051906020019061110c929190611a34565b5060808201518160040160006101000a81548173ffffffffffffffffffffffffffffffffffffffff021916908373ffffffffffffffffffffffffffffffffffffffff1602179055509050507fad0a109165844f3ce2ba48b2f425670549824d63ce74deed36fb2692ac62734360015485858585604051808681526020018573ffffffffffffffffffffffffffffffffffffffff1673ffffffffffffffffffffffffffffffffffffffff16815260200180602001806020018473ffffffffffffffffffffffffffffffffffffffff1673ffffffffffffffffffffffffffffffffffffffff168152602001838103835286818151815260200191508051906020019080838360005b8381101561122d578082015181840152602081019050611212565b50505050905090810190601f16801561125a5780820380516001836020036101000a031916815260200191505b50838103825285818151815260200191508051906020019080838360005b83811015611293578082015181840152602081019050611278565b50505050905090810190601f1680156112c05780820380516001836020036101000a031916815260200191505b5097505050505050505060405180910390a150505050565b3373ffffffffffffffffffffffffffffffffffffffff16600260003373ffffffffffffffffffffffffffffffffffffffff1673ffffffffffffffffffffffffffffffffffffffff16815260200190815260200160002060000160009054906101000a900473ffffffffffffffffffffffffffffffffffffffff1673ffffffffffffffffffffffffffffffffffffffff16148015611474575060405160200180807f77686f6c6573656c6c6572000000000000000000000000000000000000000000815250600b01905060405160208183030381529060405280519060200120600260003373ffffffffffffffffffffffffffffffffffffffff1673ffffffffffffffffffffffffffffffffffffffff16815260200190815260200160002060050160405160200180828054600181600116156101000203166002900480156114575780601f10611435576101008083540402835291820191611457565b820191906000526020600020905b815481529060010190602001808311611443575b505091505060405160208183030381529060405280519060200120145b801561157f575060405160200180807f6d65726368616e74000000000000000000000000000000000000000000000000815250600801905060405160208183030381529060405280519060200120600260008373ffffffffffffffffffffffffffffffffffffffff1673ffffffffffffffffffffffffffffffffffffffff16815260200190815260200160002060050160405160200180828054600181600116156101000203166002900480156115625780601f10611540576101008083540402835291820191611562565b820191906000526020600020905b81548152906001019060200180831161154e575b505091505060405160208183030381529060405280519060200120145b61158857600080fd5b600260008273ffffffffffffffffffffffffffffffffffffffff1673ffffffffffffffffffffffffffffffffffffffff16815260200190815260200160002060000160009054906101000a900473ffffffffffffffffffffffffffffffffffffffff1673ffffffffffffffffffffffffffffffffffffffff166108fc349081150290604051600060405180830381858888f19350505050158015611630573d6000803e3d6000fd5b5050565b600260008273ffffffffffffffffffffffffffffffffffffffff1673ffffffffffffffffffffffffffffffffffffffff16815260200190815260200160002060000160009054906101000a900473ffffffffffffffffffffffffffffffffffffffff1673ffffffffffffffffffffffffffffffffffffffff166108fc349081150290604051600060405180830381858888f193505050501580156116dc573d6000803e3d6000fd5b5050565b60026020528060005260406000206000915090508060000160009054906101000a900473ffffffffffffffffffffffffffffffffffffffff1690806001018054600181600116156101000203166002900480601f0160208091040260200160405190810160405280929190818152602001828054600181600116156101000203166002900480156117b25780601f10611787576101008083540402835291602001916117b2565b820191906000526020600020905b81548152906001019060200180831161179557829003601f168201915b505050505090806002018054600181600116156101000203166002900480601f0160208091040260200160405190810160405280929190818152602001828054600181600116156101000203166002900480156118505780601f1061182557610100808354040283529160200191611850565b820191906000526020600020905b81548152906001019060200180831161183357829003601f168201915b505050505090806003018054600181600116156101000203166002900480601f0160208091040260200160405190810160405280929190818152602001828054600181600116156101000203166002900480156118ee5780601f106118c3576101008083540402835291602001916118ee565b820191906000526020600020905b8154815290600101906020018083116118d157829003601f168201915b505050505090806004018054600181600116156101000203166002900480601f01602080910402602001604051908101604052809291908181526020018280546001816001161561010002031660029004801561198c5780601f106119615761010080835404028352916020019161198c565b820191906000526020600020905b81548152906001019060200180831161196f57829003601f168201915b505050505090806005018054600181600116156101000203166002900480601f016020809104026020016040519081016040528092919081815260200182805460018160011615610100020316600290048015611a2a5780601f106119ff57610100808354040283529160200191611a2a565b820191906000526020600020905b815481529060010190602001808311611a0d57829003601f168201915b5050505050905086565b828054600181600116156101000203166002900490600052602060002090601f016020900481019282601f10611a7557805160ff1916838001178555611aa3565b82800160010185558215611aa3579182015b82811115611aa2578251825591602001919060010190611a87565b5b509050611ab09190611ab4565b5090565b611ad691905b80821115611ad2576000816000905550600101611aba565b5090565b9056fea265627a7a72315820c679558bfd41a4a46899b48c64b6bea7e8d7c2892ea701e0725cff7c9a55bb4b64736f6c63430005100032",
  "source": "pragma solidity ^0.5.0;\n\ncontract Gst {\n    uint256 public userCount = 0;\n    uint256 public billCount = 100;\n    mapping(address => Users) public usersMap;\n    mapping(uint256 => Bill) public billMap;\n    struct Users {\n        address payable addr;\n        string firstName;\n        string lastName;\n        string email;\n        string gstNumber;\n        string userType;\n    }\n\n    struct Bill {\n        uint256 id;\n        address receiverAddress;\n        string materialSelected;\n        string totalAmount;\n        address billIssuer;\n    }\n\n    event BillCreated (\n        uint256 id,\n        address receiverAddress,\n        string materialSelected,\n        string totalAmount,\n        address billIssuer\n    );\n\n    event AccountCreated(\n        address payable addr,\n        string firstName,\n        string lastName,\n        string email,\n        string gstNumber,\n        string userType\n    );\n\n    function createAccount(\n        string memory _firstName,\n        string memory _lastname,\n        string memory _email,\n        string memory _gstNumber,\n        string memory _userType\n        )\n        public {\n            userCount ++;\n            usersMap[msg.sender] = Users(msg.sender, _firstName, _lastname, _email, _gstNumber, _userType);\n            emit AccountCreated(msg.sender, _firstName, _lastname, _email, _gstNumber, _userType);\n    }\n\n    function generateBill(\n        address _receiverAddress,\n        string memory _materialSelected,\n        string memory _totalAmount,\n        address _billIssuer\n        ) public {\n        billCount ++;\n        billMap[billCount] = Bill(billCount, _receiverAddress, _materialSelected, _totalAmount, _billIssuer);\n        emit BillCreated(billCount, _receiverAddress, _materialSelected, _totalAmount, _billIssuer);\n    }\n\n    function test(address _receiver) public payable{\n        usersMap[_receiver].addr.transfer(msg.value);\n    }\n\n    function transferAmount(address _receiverAddress) public payable {\n        require(\n            usersMap[msg.sender].addr == msg.sender && \n            keccak256(abi.encodePacked((usersMap[msg.sender].userType)))  == keccak256(abi.encodePacked(('wholeseller'))) && \n            keccak256(abi.encodePacked((usersMap[_receiverAddress].userType)))  == keccak256(abi.encodePacked(('merchant')))\n        );\n            usersMap[_receiverAddress].addr.transfer(msg.value);\n    }\n}",
  "sourcePath": "/home/niranjan/Documents/Niranjan/My Project/gst_system/contracts/Gst.sol",
  "compiler": {
    "name": "solc",
    "version": "0.5.16+commit.9c3226ce.Emscripten.clang"
  },
  "schemaVersion": "3.0.21",
  "updatedAt": "2020-03-03T14:25:57.901Z",
  "networkType": "ethereum",
  "devdoc": {
    "methods": {}
  },
  "userdoc": {
    "methods": {}
  }
}