{
  "contractName": "Gst",
  "abi": [
    {
      "anonymous": false,
      "inputs": [
        {
          "indexed": false,
          "internalType": "uint256",
          "name": "id",
          "type": "uint256"
        },
        {
          "indexed": false,
          "internalType": "address payable",
          "name": "addr",
          "type": "address"
        },
        {
          "indexed": false,
          "internalType": "string",
          "name": "firstName",
          "type": "string"
        },
        {
          "indexed": false,
          "internalType": "string",
          "name": "lastName",
          "type": "string"
        },
        {
          "indexed": false,
          "internalType": "string",
          "name": "email",
          "type": "string"
        },
        {
          "indexed": false,
          "internalType": "string",
          "name": "gstNumber",
          "type": "string"
        },
        {
          "indexed": false,
          "internalType": "string",
          "name": "userType",
          "type": "string"
        }
      ],
      "name": "AccountCreated",
      "type": "event"
    },
    {
      "anonymous": false,
      "inputs": [
        {
          "indexed": false,
          "internalType": "uint256",
          "name": "id",
          "type": "uint256"
        },
        {
          "indexed": false,
          "internalType": "address",
          "name": "receiverAddress",
          "type": "address"
        },
        {
          "indexed": false,
          "internalType": "string",
          "name": "materialSelected",
          "type": "string"
        },
        {
          "indexed": false,
          "internalType": "string",
          "name": "beforeGstAmount",
          "type": "string"
        },
        {
          "indexed": false,
          "internalType": "string",
          "name": "afterGstAmount",
          "type": "string"
        },
        {
          "indexed": false,
          "internalType": "string[]",
          "name": "gstAmount",
          "type": "string[]"
        },
        {
          "indexed": false,
          "internalType": "string",
          "name": "gstPercent",
          "type": "string"
        },
        {
          "indexed": false,
          "internalType": "address",
          "name": "billIssuer",
          "type": "address"
        }
      ],
      "name": "BillCreated",
      "type": "event"
    },
    {
      "anonymous": false,
      "inputs": [
        {
          "indexed": false,
          "internalType": "uint256",
          "name": "id",
          "type": "uint256"
        },
        {
          "indexed": false,
          "internalType": "address",
          "name": "receiverAddress",
          "type": "address"
        },
        {
          "indexed": false,
          "internalType": "string",
          "name": "materialSelected",
          "type": "string"
        },
        {
          "indexed": false,
          "internalType": "string",
          "name": "beforeGstAmount",
          "type": "string"
        },
        {
          "indexed": false,
          "internalType": "string",
          "name": "afterGstAmount",
          "type": "string"
        },
        {
          "indexed": false,
          "internalType": "string[]",
          "name": "gstAmount",
          "type": "string[]"
        },
        {
          "indexed": false,
          "internalType": "string",
          "name": "gstPercent",
          "type": "string"
        },
        {
          "indexed": false,
          "internalType": "address",
          "name": "billIssuer",
          "type": "address"
        }
      ],
      "name": "BillPaid",
      "type": "event"
    },
    {
      "anonymous": false,
      "inputs": [
        {
          "indexed": false,
          "internalType": "address payable",
          "name": "addr",
          "type": "address"
        },
        {
          "indexed": false,
          "internalType": "string",
          "name": "govType",
          "type": "string"
        }
      ],
      "name": "GovernmentAccountCreated",
      "type": "event"
    },
    {
      "constant": true,
      "inputs": [],
      "name": "billCount",
      "outputs": [
        {
          "internalType": "uint256",
          "name": "",
          "type": "uint256"
        }
      ],
      "payable": false,
      "stateMutability": "view",
      "type": "function"
    },
    {
      "constant": true,
      "inputs": [
        {
          "internalType": "uint256",
          "name": "",
          "type": "uint256"
        }
      ],
      "name": "billMap",
      "outputs": [
        {
          "internalType": "uint256",
          "name": "id",
          "type": "uint256"
        },
        {
          "internalType": "address",
          "name": "receiverAddress",
          "type": "address"
        },
        {
          "internalType": "string",
          "name": "materialSelected",
          "type": "string"
        },
        {
          "internalType": "string",
          "name": "beforeGstAmount",
          "type": "string"
        },
        {
          "internalType": "string",
          "name": "afterGstAmount",
          "type": "string"
        },
        {
          "internalType": "string",
          "name": "gstPercent",
          "type": "string"
        },
        {
          "internalType": "address",
          "name": "billIssuer",
          "type": "address"
        }
      ],
      "payable": false,
      "stateMutability": "view",
      "type": "function"
    },
    {
      "constant": true,
      "inputs": [
        {
          "internalType": "address",
          "name": "",
          "type": "address"
        }
      ],
      "name": "governmentMap",
      "outputs": [
        {
          "internalType": "address payable",
          "name": "addr",
          "type": "address"
        },
        {
          "internalType": "string",
          "name": "govType",
          "type": "string"
        }
      ],
      "payable": false,
      "stateMutability": "view",
      "type": "function"
    },
    {
      "constant": true,
      "inputs": [],
      "name": "userCount",
      "outputs": [
        {
          "internalType": "uint256",
          "name": "",
          "type": "uint256"
        }
      ],
      "payable": false,
      "stateMutability": "view",
      "type": "function"
    },
    {
      "constant": true,
      "inputs": [
        {
          "internalType": "address",
          "name": "",
          "type": "address"
        }
      ],
      "name": "usersMap",
      "outputs": [
        {
          "internalType": "uint256",
          "name": "id",
          "type": "uint256"
        },
        {
          "internalType": "address payable",
          "name": "addr",
          "type": "address"
        },
        {
          "internalType": "string",
          "name": "firstName",
          "type": "string"
        },
        {
          "internalType": "string",
          "name": "lastName",
          "type": "string"
        },
        {
          "internalType": "string",
          "name": "email",
          "type": "string"
        },
        {
          "internalType": "string",
          "name": "gstNumber",
          "type": "string"
        },
        {
          "internalType": "string",
          "name": "userType",
          "type": "string"
        }
      ],
      "payable": false,
      "stateMutability": "view",
      "type": "function"
    },
    {
      "constant": false,
      "inputs": [
        {
          "internalType": "address payable",
          "name": "_addr",
          "type": "address"
        },
        {
          "internalType": "string",
          "name": "_govType",
          "type": "string"
        }
      ],
      "name": "createGovernmentAccount",
      "outputs": [],
      "payable": false,
      "stateMutability": "nonpayable",
      "type": "function"
    },
    {
      "constant": false,
      "inputs": [
        {
          "internalType": "string",
          "name": "_firstName",
          "type": "string"
        },
        {
          "internalType": "string",
          "name": "_lastname",
          "type": "string"
        },
        {
          "internalType": "string",
          "name": "_email",
          "type": "string"
        },
        {
          "internalType": "string",
          "name": "_gstNumber",
          "type": "string"
        },
        {
          "internalType": "string",
          "name": "_userType",
          "type": "string"
        }
      ],
      "name": "createAccount",
      "outputs": [],
      "payable": false,
      "stateMutability": "nonpayable",
      "type": "function"
    },
    {
      "constant": false,
      "inputs": [
        {
          "internalType": "address",
          "name": "_receiverAddress",
          "type": "address"
        },
        {
          "internalType": "string",
          "name": "_materialSelected",
          "type": "string"
        },
        {
          "internalType": "string",
          "name": "_beforeGstAmount",
          "type": "string"
        },
        {
          "internalType": "string",
          "name": "_afterGstAmount",
          "type": "string"
        },
        {
          "internalType": "string[]",
          "name": "_gstAmount",
          "type": "string[]"
        },
        {
          "internalType": "string",
          "name": "_gstPercent",
          "type": "string"
        },
        {
          "internalType": "address",
          "name": "_billIssuer",
          "type": "address"
        }
      ],
      "name": "generateBill",
      "outputs": [],
      "payable": false,
      "stateMutability": "nonpayable",
      "type": "function"
    },
    {
      "constant": false,
      "inputs": [
        {
          "internalType": "address",
          "name": "_receiver",
          "type": "address"
        }
      ],
      "name": "transferAmountToUser",
      "outputs": [],
      "payable": true,
      "stateMutability": "payable",
      "type": "function"
    },
    {
      "constant": false,
      "inputs": [
        {
          "internalType": "address",
          "name": "_sgstAddress",
          "type": "address"
        }
      ],
      "name": "transferAmountToSGST",
      "outputs": [],
      "payable": true,
      "stateMutability": "payable",
      "type": "function"
    },
    {
      "constant": false,
      "inputs": [
        {
          "internalType": "address",
          "name": "_cgstAddress",
          "type": "address"
        }
      ],
      "name": "transferAmountToCGST",
      "outputs": [],
      "payable": true,
      "stateMutability": "payable",
      "type": "function"
    },
    {
      "constant": true,
      "inputs": [
        {
          "internalType": "uint256",
          "name": "_billId",
          "type": "uint256"
        }
      ],
      "name": "gstAmountArray",
      "outputs": [
        {
          "internalType": "string[]",
          "name": "",
          "type": "string[]"
        }
      ],
      "payable": false,
      "stateMutability": "view",
      "type": "function"
    }
  ],
  "bytecode": "0x60806040526107d0600055606460015534801561001b57600080fd5b50611df28061002b6000396000f3fe6080604052600436106100a75760003560e01c8063548865a711610064578063548865a7146101a657806355a2d9fd146101c25780637de9980c146101eb578063a75705e014610214578063aa5bd30e14610252578063e281447c1461028f576100a7565b806307973ccf146100ac5780630cbf1929146100d7578063283449751461011a57806341dc3412146101365780634200d03e1461016157806348377e3a1461018a575b600080fd5b3480156100b857600080fd5b506100c16102d2565b6040516100ce9190611940565b60405180910390f35b3480156100e357600080fd5b506100fe60048036036100f99190810190611734565b6102d8565b6040516101119796959493929190611b20565b60405180910390f35b610134600480360361012f91908101906114b2565b6105ba565b005b34801561014257600080fd5b5061014b610666565b6040516101589190611940565b60405180910390f35b34801561016d57600080fd5b506101886004803603610183919081019061152f565b61066c565b005b6101a4600480360361019f91908101906114b2565b610877565b005b6101c060048036036101bb91908101906114b2565b610923565b005b3480156101ce57600080fd5b506101e960048036036101e49190810190611645565b6109cf565b005b3480156101f757600080fd5b50610212600480360361020d91908101906114db565b610b9b565b005b34801561022057600080fd5b5061023b600480360361023691908101906114b2565b610ca9565b6040516102499291906118be565b60405180910390f35b34801561025e57600080fd5b5061027960048036036102749190810190611734565b610d85565b604051610286919061191e565b60405180910390f35b34801561029b57600080fd5b506102b660048036036102b191908101906114b2565b610e84565b6040516102c997969594939291906119ed565b60405180910390f35b60005481565b60036020528060005260406000206000915090508060000154908060010160009054906101000a900473ffffffffffffffffffffffffffffffffffffffff1690806002018054600181600116156101000203166002900480601f0160208091040260200160405190810160405280929190818152602001828054600181600116156101000203166002900480156103b05780601f10610385576101008083540402835291602001916103b0565b820191906000526020600020905b81548152906001019060200180831161039357829003601f168201915b505050505090806003018054600181600116156101000203166002900480601f01602080910402602001604051908101604052809291908181526020018280546001816001161561010002031660029004801561044e5780601f106104235761010080835404028352916020019161044e565b820191906000526020600020905b81548152906001019060200180831161043157829003601f168201915b505050505090806004018054600181600116156101000203166002900480601f0160208091040260200160405190810160405280929190818152602001828054600181600116156101000203166002900480156104ec5780601f106104c1576101008083540402835291602001916104ec565b820191906000526020600020905b8154815290600101906020018083116104cf57829003601f168201915b505050505090806006018054600181600116156101000203166002900480601f01602080910402602001604051908101604052809291908181526020018280546001816001161561010002031660029004801561058a5780601f1061055f5761010080835404028352916020019161058a565b820191906000526020600020905b81548152906001019060200180831161056d57829003601f168201915b5050505050908060070160009054906101000a900473ffffffffffffffffffffffffffffffffffffffff16905087565b600460008273ffffffffffffffffffffffffffffffffffffffff1673ffffffffffffffffffffffffffffffffffffffff16815260200190815260200160002060000160009054906101000a900473ffffffffffffffffffffffffffffffffffffffff1673ffffffffffffffffffffffffffffffffffffffff166108fc349081150290604051600060405180830381858888f19350505050158015610662573d6000803e3d6000fd5b5050565b60015481565b60016000815480929190600101919050555060405180610100016040528060015481526020018873ffffffffffffffffffffffffffffffffffffffff1681526020018781526020018681526020018581526020018481526020018381526020018273ffffffffffffffffffffffffffffffffffffffff168152506003600060015481526020019081526020016000206000820151816000015560208201518160010160006101000a81548173ffffffffffffffffffffffffffffffffffffffff021916908373ffffffffffffffffffffffffffffffffffffffff16021790555060408201518160020190805190602001906107689291906111de565b5060608201518160030190805190602001906107859291906111de565b5060808201518160040190805190602001906107a29291906111de565b5060a08201518160050190805190602001906107bf92919061125e565b5060c08201518160060190805190602001906107dc9291906111de565b5060e08201518160070160006101000a81548173ffffffffffffffffffffffffffffffffffffffff021916908373ffffffffffffffffffffffffffffffffffffffff1602179055509050507f2bed57f0c845a3405fbcfaf8b81260bae55c8af4943e87f5d84d9b8ec6b7b59460015488888888888888604051610866989796959493929190611a7f565b60405180910390a150505050505050565b600460008273ffffffffffffffffffffffffffffffffffffffff1673ffffffffffffffffffffffffffffffffffffffff16815260200190815260200160002060000160009054906101000a900473ffffffffffffffffffffffffffffffffffffffff1673ffffffffffffffffffffffffffffffffffffffff166108fc349081150290604051600060405180830381858888f1935050505015801561091f573d6000803e3d6000fd5b5050565b600260008273ffffffffffffffffffffffffffffffffffffffff1673ffffffffffffffffffffffffffffffffffffffff16815260200190815260200160002060010160009054906101000a900473ffffffffffffffffffffffffffffffffffffffff1673ffffffffffffffffffffffffffffffffffffffff166108fc349081150290604051600060405180830381858888f193505050501580156109cb573d6000803e3d6000fd5b5050565b60008081548092919060010191905055506040518060e0016040528060005481526020013373ffffffffffffffffffffffffffffffffffffffff16815260200186815260200185815260200184815260200183815260200182815250600260003373ffffffffffffffffffffffffffffffffffffffff1673ffffffffffffffffffffffffffffffffffffffff1681526020019081526020016000206000820151816000015560208201518160010160006101000a81548173ffffffffffffffffffffffffffffffffffffffff021916908373ffffffffffffffffffffffffffffffffffffffff1602179055506040820151816002019080519060200190610ad79291906111de565b506060820151816003019080519060200190610af49291906111de565b506080820151816004019080519060200190610b119291906111de565b5060a0820151816005019080519060200190610b2e9291906111de565b5060c0820151816006019080519060200190610b4b9291906111de565b509050507f8c4aad3c0960e4ceb0dcda2c906d32232fdc3ca01b231793d5688534fda53614600054338787878787604051610b8c979695949392919061195b565b60405180910390a15050505050565b60405180604001604052808373ffffffffffffffffffffffffffffffffffffffff16815260200182815250600460008473ffffffffffffffffffffffffffffffffffffffff1673ffffffffffffffffffffffffffffffffffffffff16815260200190815260200160002060008201518160000160006101000a81548173ffffffffffffffffffffffffffffffffffffffff021916908373ffffffffffffffffffffffffffffffffffffffff1602179055506020820151816001019080519060200190610c689291906111de565b509050507fe399e430f6292e834eaf6b7ac8d72b6d6c6ebc8785787655a10380cdeee48d548282604051610c9d9291906118ee565b60405180910390a15050565b60046020528060005260406000206000915090508060000160009054906101000a900473ffffffffffffffffffffffffffffffffffffffff1690806001018054600181600116156101000203166002900480601f016020809104026020016040519081016040528092919081815260200182805460018160011615610100020316600290048015610d7b5780601f10610d5057610100808354040283529160200191610d7b565b820191906000526020600020905b815481529060010190602001808311610d5e57829003601f168201915b5050505050905082565b606060036000838152602001908152602001600020600501805480602002602001604051908101604052809291908181526020016000905b82821015610e79578382906000526020600020018054600181600116156101000203166002900480601f016020809104026020016040519081016040528092919081815260200182805460018160011615610100020316600290048015610e655780601f10610e3a57610100808354040283529160200191610e65565b820191906000526020600020905b815481529060010190602001808311610e4857829003601f168201915b505050505081526020019060010190610dbd565b505050509050919050565b60026020528060005260406000206000915090508060000154908060010160009054906101000a900473ffffffffffffffffffffffffffffffffffffffff1690806002018054600181600116156101000203166002900480601f016020809104026020016040519081016040528092919081815260200182805460018160011615610100020316600290048015610f5c5780601f10610f3157610100808354040283529160200191610f5c565b820191906000526020600020905b815481529060010190602001808311610f3f57829003601f168201915b505050505090806003018054600181600116156101000203166002900480601f016020809104026020016040519081016040528092919081815260200182805460018160011615610100020316600290048015610ffa5780601f10610fcf57610100808354040283529160200191610ffa565b820191906000526020600020905b815481529060010190602001808311610fdd57829003601f168201915b505050505090806004018054600181600116156101000203166002900480601f0160208091040260200160405190810160405280929190818152602001828054600181600116156101000203166002900480156110985780601f1061106d57610100808354040283529160200191611098565b820191906000526020600020905b81548152906001019060200180831161107b57829003601f168201915b505050505090806005018054600181600116156101000203166002900480601f0160208091040260200160405190810160405280929190818152602001828054600181600116156101000203166002900480156111365780601f1061110b57610100808354040283529160200191611136565b820191906000526020600020905b81548152906001019060200180831161111957829003601f168201915b505050505090806006018054600181600116156101000203166002900480601f0160208091040260200160405190810160405280929190818152602001828054600181600116156101000203166002900480156111d45780601f106111a9576101008083540402835291602001916111d4565b820191906000526020600020905b8154815290600101906020018083116111b757829003601f168201915b5050505050905087565b828054600181600116156101000203166002900490600052602060002090601f016020900481019282601f1061121f57805160ff191683800117855561124d565b8280016001018555821561124d579182015b8281111561124c578251825591602001919060010190611231565b5b50905061125a91906112be565b5090565b8280548282559060005260206000209081019282156112ad579160200282015b828111156112ac57825182908051906020019061129c9291906111de565b509160200191906001019061127e565b5b5090506112ba91906112e3565b5090565b6112e091905b808211156112dc5760008160009055506001016112c4565b5090565b90565b61130c91905b8082111561130857600081816112ff919061130f565b506001016112e9565b5090565b90565b50805460018160011615610100020316600290046000825580601f106113355750611354565b601f01602090049060005260206000209081019061135391906112be565b5b50565b60008135905061136681611d6a565b92915050565b60008135905061137b81611d81565b92915050565b600082601f83011261139257600080fd5b81356113a56113a082611bd8565b611bab565b9150818183526020840193506020810190508360005b838110156113eb57813586016113d188826113f5565b8452602084019350602083019250506001810190506113bb565b5050505092915050565b600082601f83011261140657600080fd5b813561141961141482611c00565b611bab565b9150808252602083016020830185838301111561143557600080fd5b611440838284611d17565b50505092915050565b600082601f83011261145a57600080fd5b813561146d61146882611c2c565b611bab565b9150808252602083016020830185838301111561148957600080fd5b611494838284611d17565b50505092915050565b6000813590506114ac81611d98565b92915050565b6000602082840312156114c457600080fd5b60006114d284828501611357565b91505092915050565b600080604083850312156114ee57600080fd5b60006114fc8582860161136c565b925050602083013567ffffffffffffffff81111561151957600080fd5b61152585828601611449565b9150509250929050565b600080600080600080600060e0888a03121561154a57600080fd5b60006115588a828b01611357565b975050602088013567ffffffffffffffff81111561157557600080fd5b6115818a828b01611449565b965050604088013567ffffffffffffffff81111561159e57600080fd5b6115aa8a828b01611449565b955050606088013567ffffffffffffffff8111156115c757600080fd5b6115d38a828b01611449565b945050608088013567ffffffffffffffff8111156115f057600080fd5b6115fc8a828b01611381565b93505060a088013567ffffffffffffffff81111561161957600080fd5b6116258a828b01611449565b92505060c06116368a828b01611357565b91505092959891949750929550565b600080600080600060a0868803121561165d57600080fd5b600086013567ffffffffffffffff81111561167757600080fd5b61168388828901611449565b955050602086013567ffffffffffffffff8111156116a057600080fd5b6116ac88828901611449565b945050604086013567ffffffffffffffff8111156116c957600080fd5b6116d588828901611449565b935050606086013567ffffffffffffffff8111156116f257600080fd5b6116fe88828901611449565b925050608086013567ffffffffffffffff81111561171b57600080fd5b61172788828901611449565b9150509295509295909350565b60006020828403121561174657600080fd5b60006117548482850161149d565b91505092915050565b6000611769838361183d565b905092915050565b61177a81611cdb565b82525050565b61178981611cc9565b82525050565b600061179a82611c68565b6117a48185611c96565b9350836020820285016117b685611c58565b8060005b858110156117f257848403895281516117d3858261175d565b94506117de83611c89565b925060208a019950506001810190506117ba565b50829750879550505050505092915050565b600061180f82611c7e565b6118198185611cb8565b9350611829818560208601611d26565b61183281611d59565b840191505092915050565b600061184882611c73565b6118528185611ca7565b9350611862818560208601611d26565b61186b81611d59565b840191505092915050565b600061188182611c73565b61188b8185611cb8565b935061189b818560208601611d26565b6118a481611d59565b840191505092915050565b6118b881611d0d565b82525050565b60006040820190506118d36000830185611771565b81810360208301526118e58184611876565b90509392505050565b60006040820190506119036000830185611771565b81810360208301526119158184611804565b90509392505050565b60006020820190508181036000830152611938818461178f565b905092915050565b600060208201905061195560008301846118af565b92915050565b600060e082019050611970600083018a6118af565b61197d6020830189611771565b818103604083015261198f8188611804565b905081810360608301526119a38187611804565b905081810360808301526119b78186611804565b905081810360a08301526119cb8185611804565b905081810360c08301526119df8184611804565b905098975050505050505050565b600060e082019050611a02600083018a6118af565b611a0f6020830189611771565b8181036040830152611a218188611876565b90508181036060830152611a358187611876565b90508181036080830152611a498186611876565b905081810360a0830152611a5d8185611876565b905081810360c0830152611a718184611876565b905098975050505050505050565b600061010082019050611a95600083018b6118af565b611aa2602083018a611780565b8181036040830152611ab48189611804565b90508181036060830152611ac88188611804565b90508181036080830152611adc8187611804565b905081810360a0830152611af0818661178f565b905081810360c0830152611b048185611804565b9050611b1360e0830184611780565b9998505050505050505050565b600060e082019050611b35600083018a6118af565b611b426020830189611780565b8181036040830152611b548188611876565b90508181036060830152611b688187611876565b90508181036080830152611b7c8186611876565b905081810360a0830152611b908185611876565b9050611b9f60c0830184611780565b98975050505050505050565b6000604051905081810181811067ffffffffffffffff82111715611bce57600080fd5b8060405250919050565b600067ffffffffffffffff821115611bef57600080fd5b602082029050602081019050919050565b600067ffffffffffffffff821115611c1757600080fd5b601f19601f8301169050602081019050919050565b600067ffffffffffffffff821115611c4357600080fd5b601f19601f8301169050602081019050919050565b6000819050602082019050919050565b600081519050919050565b600081519050919050565b600081519050919050565b6000602082019050919050565b600082825260208201905092915050565b600082825260208201905092915050565b600082825260208201905092915050565b6000611cd482611ced565b9050919050565b6000611ce682611ced565b9050919050565b600073ffffffffffffffffffffffffffffffffffffffff82169050919050565b6000819050919050565b82818337600083830152505050565b60005b83811015611d44578082015181840152602081019050611d29565b83811115611d53576000848401525b50505050565b6000601f19601f8301169050919050565b611d7381611cc9565b8114611d7e57600080fd5b50565b611d8a81611cdb565b8114611d9557600080fd5b50565b611da181611d0d565b8114611dac57600080fd5b5056fea365627a7a7231582076e04f546d53609b49a034780ff7f817c5b1d208635c92836eb998d68bceaa316c6578706572696d656e74616cf564736f6c63430005100040",
  "source": "pragma solidity ^0.5.1;\npragma experimental ABIEncoderV2;\n\ncontract Gst {\n    uint256 public userCount = 2000;\n    uint256 public billCount = 100;\n    mapping(address => Users) public usersMap;\n    mapping(uint256 => Bill) public billMap;\n    mapping(address => Government) public governmentMap;\n\n    struct Government {\n        address payable addr;\n        string govType;\n    }\n\n    struct Users {\n        uint256 id;\n        address payable addr;\n        string firstName;\n        string lastName;\n        string email;\n        string gstNumber;\n        string userType;\n    }\n\n    struct Bill {\n        uint256 id;\n        address receiverAddress;\n        string materialSelected;\n        string beforeGstAmount;\n        string afterGstAmount;\n        string[] gstAmount;\n        string gstPercent;\n        address billIssuer;\n    }\n\n    event GovernmentAccountCreated (\n        address payable addr,\n        string govType\n    );\n\n    event BillCreated (\n        uint256 id,\n        address receiverAddress,\n        string materialSelected,\n        string beforeGstAmount,\n        string afterGstAmount,\n        string[] gstAmount,\n        string gstPercent,\n        address billIssuer\n    );\n\n    event AccountCreated(\n        uint256 id,\n        address payable addr,\n        string firstName,\n        string lastName,\n        string email,\n        string gstNumber,\n        string userType\n    );\n    event BillPaid(\n        uint256 id,\n        address receiverAddress,\n        string materialSelected,\n        string beforeGstAmount,\n        string afterGstAmount,\n        string[] gstAmount,\n        string gstPercent,\n        address billIssuer\n    );\n\n    function createGovernmentAccount(address payable _addr, string memory _govType) public {\n        governmentMap[_addr] = Government(_addr, _govType);\n        emit GovernmentAccountCreated(_addr, _govType);\n    }\n\n    function createAccount(\n        string memory _firstName,\n        string memory _lastname,\n        string memory _email,\n        string memory _gstNumber,\n        string memory _userType\n        )\n        public {\n            userCount ++;\n\n            usersMap[msg.sender] = Users(\n                userCount,\n                msg.sender,\n                _firstName,\n                _lastname,\n                _email,\n                _gstNumber,\n                _userType\n                );\n\n            emit AccountCreated(\n                userCount,\n                msg.sender,\n                _firstName,\n                _lastname,\n                _email,\n                _gstNumber,\n                _userType\n                );\n    }\n\n    function generateBill(\n        address _receiverAddress,\n        string memory _materialSelected,\n        string memory _beforeGstAmount,\n        string memory _afterGstAmount,\n        string[] memory _gstAmount,\n        string memory _gstPercent,\n        address _billIssuer\n        )\n        public {\n            billCount ++;\n\n            billMap[billCount] = Bill(\n                billCount,\n                _receiverAddress,\n                _materialSelected,\n                _beforeGstAmount,\n                _afterGstAmount,\n                _gstAmount,\n                _gstPercent,\n                _billIssuer\n                );\n\n            emit BillCreated(\n                billCount,\n                _receiverAddress,\n                _materialSelected,\n                _beforeGstAmount,\n                _afterGstAmount,\n                _gstAmount,\n                _gstPercent,\n                _billIssuer\n                );\n    }\n\n    function transferAmountToUser(address _receiver) public payable {\n        usersMap[_receiver].addr.transfer(msg.value);\n    }\n\n    function transferAmountToSGST(address _sgstAddress) public payable {\n        governmentMap[_sgstAddress].addr.transfer(msg.value);\n    }\n\n    function transferAmountToCGST(address _cgstAddress) public payable {\n        governmentMap[_cgstAddress].addr.transfer(msg.value);\n    }\n\n    function gstAmountArray(uint256 _billId) public view returns(string[] memory) {\n        return billMap[_billId].gstAmount;\n    }\n}",
  "sourcePath": "/home/niranjan/Documents/Niranjan/My Project/gst_system/contracts/Gst.sol",
  "compiler": {
    "name": "solc",
    "version": "0.5.16+commit.9c3226ce.Emscripten.clang"
  },
  "schemaVersion": "3.0.21",
  "updatedAt": "2020-03-23T16:11:54.568Z",
  "networkType": "ethereum",
  "devdoc": {
    "methods": {}
  },
  "userdoc": {
    "methods": {}
  }
}