{
  "contractName": "Gst",
  "abi": [
    {
      "anonymous": false,
      "inputs": [
        {
          "indexed": false,
          "internalType": "address payable",
          "name": "addr",
          "type": "address"
        },
        {
          "indexed": false,
          "internalType": "string",
          "name": "firstName",
          "type": "string"
        },
        {
          "indexed": false,
          "internalType": "string",
          "name": "lastName",
          "type": "string"
        },
        {
          "indexed": false,
          "internalType": "string",
          "name": "email",
          "type": "string"
        },
        {
          "indexed": false,
          "internalType": "string",
          "name": "gstNumber",
          "type": "string"
        },
        {
          "indexed": false,
          "internalType": "string",
          "name": "userType",
          "type": "string"
        }
      ],
      "name": "AccountCreated",
      "type": "event"
    },
    {
      "anonymous": false,
      "inputs": [
        {
          "indexed": false,
          "internalType": "uint256",
          "name": "id",
          "type": "uint256"
        },
        {
          "indexed": false,
          "internalType": "address",
          "name": "receiverAddress",
          "type": "address"
        },
        {
          "indexed": false,
          "internalType": "string",
          "name": "materialSelected",
          "type": "string"
        },
        {
          "indexed": false,
          "internalType": "string",
          "name": "beforeGstAmount",
          "type": "string"
        },
        {
          "indexed": false,
          "internalType": "string",
          "name": "afterGstAmount",
          "type": "string"
        },
        {
          "indexed": false,
          "internalType": "address",
          "name": "billIssuer",
          "type": "address"
        }
      ],
      "name": "BillCreated",
      "type": "event"
    },
    {
      "constant": true,
      "inputs": [],
      "name": "billCount",
      "outputs": [
        {
          "internalType": "uint256",
          "name": "",
          "type": "uint256"
        }
      ],
      "payable": false,
      "stateMutability": "view",
      "type": "function"
    },
    {
      "constant": true,
      "inputs": [
        {
          "internalType": "uint256",
          "name": "",
          "type": "uint256"
        }
      ],
      "name": "billMap",
      "outputs": [
        {
          "internalType": "uint256",
          "name": "id",
          "type": "uint256"
        },
        {
          "internalType": "address",
          "name": "receiverAddress",
          "type": "address"
        },
        {
          "internalType": "string",
          "name": "materialSelected",
          "type": "string"
        },
        {
          "internalType": "string",
          "name": "beforeGstAmount",
          "type": "string"
        },
        {
          "internalType": "string",
          "name": "afterGstAmount",
          "type": "string"
        },
        {
          "internalType": "address",
          "name": "billIssuer",
          "type": "address"
        }
      ],
      "payable": false,
      "stateMutability": "view",
      "type": "function"
    },
    {
      "constant": true,
      "inputs": [],
      "name": "userCount",
      "outputs": [
        {
          "internalType": "uint256",
          "name": "",
          "type": "uint256"
        }
      ],
      "payable": false,
      "stateMutability": "view",
      "type": "function"
    },
    {
      "constant": true,
      "inputs": [
        {
          "internalType": "address",
          "name": "",
          "type": "address"
        }
      ],
      "name": "usersMap",
      "outputs": [
        {
          "internalType": "address payable",
          "name": "addr",
          "type": "address"
        },
        {
          "internalType": "string",
          "name": "firstName",
          "type": "string"
        },
        {
          "internalType": "string",
          "name": "lastName",
          "type": "string"
        },
        {
          "internalType": "string",
          "name": "email",
          "type": "string"
        },
        {
          "internalType": "string",
          "name": "gstNumber",
          "type": "string"
        },
        {
          "internalType": "string",
          "name": "userType",
          "type": "string"
        }
      ],
      "payable": false,
      "stateMutability": "view",
      "type": "function"
    },
    {
      "constant": false,
      "inputs": [
        {
          "internalType": "string",
          "name": "_firstName",
          "type": "string"
        },
        {
          "internalType": "string",
          "name": "_lastname",
          "type": "string"
        },
        {
          "internalType": "string",
          "name": "_email",
          "type": "string"
        },
        {
          "internalType": "string",
          "name": "_gstNumber",
          "type": "string"
        },
        {
          "internalType": "string",
          "name": "_userType",
          "type": "string"
        }
      ],
      "name": "createAccount",
      "outputs": [],
      "payable": false,
      "stateMutability": "nonpayable",
      "type": "function"
    },
    {
      "constant": false,
      "inputs": [
        {
          "internalType": "address",
          "name": "_receiverAddress",
          "type": "address"
        },
        {
          "internalType": "string",
          "name": "_materialSelected",
          "type": "string"
        },
        {
          "internalType": "string",
          "name": "_beforeGstAmount",
          "type": "string"
        },
        {
          "internalType": "string",
          "name": "_afterGstAmount",
          "type": "string"
        },
        {
          "internalType": "address",
          "name": "_billIssuer",
          "type": "address"
        }
      ],
      "name": "generateBill",
      "outputs": [],
      "payable": false,
      "stateMutability": "nonpayable",
      "type": "function"
    },
    {
      "constant": false,
      "inputs": [
        {
          "internalType": "address",
          "name": "_receiver",
          "type": "address"
        }
      ],
      "name": "test",
      "outputs": [],
      "payable": true,
      "stateMutability": "payable",
      "type": "function"
    },
    {
      "constant": false,
      "inputs": [
        {
          "internalType": "address",
          "name": "_receiverAddress",
          "type": "address"
        }
      ],
      "name": "transferAmount",
      "outputs": [],
      "payable": true,
      "stateMutability": "payable",
      "type": "function"
    }
  ],
  "bytecode": "0x608060405260008055606460015534801561001957600080fd5b50611d40806100296000396000f3fe60806040526004361061007b5760003560e01c80635604989e1161004e5780635604989e146105f35780639717552f14610829578063bb29998e1461086d578063e281447c146108b15761007b565b806307973ccf146100805780630cbf1929146100ab57806341dc3412146102a457806355a2d9fd146102cf575b600080fd5b34801561008c57600080fd5b50610095610b5e565b6040518082815260200191505060405180910390f35b3480156100b757600080fd5b506100e4600480360360208110156100ce57600080fd5b8101908080359060200190929190505050610b64565b604051808781526020018673ffffffffffffffffffffffffffffffffffffffff1673ffffffffffffffffffffffffffffffffffffffff1681526020018060200180602001806020018573ffffffffffffffffffffffffffffffffffffffff1673ffffffffffffffffffffffffffffffffffffffff168152602001848103845288818151815260200191508051906020019080838360005b8381101561019657808201518184015260208101905061017b565b50505050905090810190601f1680156101c35780820380516001836020036101000a031916815260200191505b50848103835287818151815260200191508051906020019080838360005b838110156101fc5780820151818401526020810190506101e1565b50505050905090810190601f1680156102295780820380516001836020036101000a031916815260200191505b50848103825286818151815260200191508051906020019080838360005b83811015610262578082015181840152602081019050610247565b50505050905090810190601f16801561028f5780820380516001836020036101000a031916815260200191505b50995050505050505050505060405180910390f35b3480156102b057600080fd5b506102b9610da8565b6040518082815260200191505060405180910390f35b3480156102db57600080fd5b506105f1600480360360a08110156102f257600080fd5b810190808035906020019064010000000081111561030f57600080fd5b82018360208201111561032157600080fd5b8035906020019184600183028401116401000000008311171561034357600080fd5b91908080601f016020809104026020016040519081016040528093929190818152602001838380828437600081840152601f19601f820116905080830192505050505050509192919290803590602001906401000000008111156103a657600080fd5b8201836020820111156103b857600080fd5b803590602001918460018302840111640100000000831117156103da57600080fd5b91908080601f016020809104026020016040519081016040528093929190818152602001838380828437600081840152601f19601f8201169050808301925050505050505091929192908035906020019064010000000081111561043d57600080fd5b82018360208201111561044f57600080fd5b8035906020019184600183028401116401000000008311171561047157600080fd5b91908080601f016020809104026020016040519081016040528093929190818152602001838380828437600081840152601f19601f820116905080830192505050505050509192919290803590602001906401000000008111156104d457600080fd5b8201836020820111156104e657600080fd5b8035906020019184600183028401116401000000008311171561050857600080fd5b91908080601f016020809104026020016040519081016040528093929190818152602001838380828437600081840152601f19601f8201169050808301925050505050505091929192908035906020019064010000000081111561056b57600080fd5b82018360208201111561057d57600080fd5b8035906020019184600183028401116401000000008311171561059f57600080fd5b91908080601f016020809104026020016040519081016040528093929190818152602001838380828437600081840152601f19601f820116905080830192505050505050509192919290505050610dae565b005b3480156105ff57600080fd5b50610827600480360360a081101561061657600080fd5b81019080803573ffffffffffffffffffffffffffffffffffffffff1690602001909291908035906020019064010000000081111561065357600080fd5b82018360208201111561066557600080fd5b8035906020019184600183028401116401000000008311171561068757600080fd5b91908080601f016020809104026020016040519081016040528093929190818152602001838380828437600081840152601f19601f820116905080830192505050505050509192919290803590602001906401000000008111156106ea57600080fd5b8201836020820111156106fc57600080fd5b8035906020019184600183028401116401000000008311171561071e57600080fd5b91908080601f016020809104026020016040519081016040528093929190818152602001838380828437600081840152601f19601f8201169050808301925050505050505091929192908035906020019064010000000081111561078157600080fd5b82018360208201111561079357600080fd5b803590602001918460018302840111640100000000831117156107b557600080fd5b91908080601f016020809104026020016040519081016040528093929190818152602001838380828437600081840152601f19601f820116905080830192505050505050509192919290803573ffffffffffffffffffffffffffffffffffffffff1690602001909291905050506111a7565b005b61086b6004803603602081101561083f57600080fd5b81019080803573ffffffffffffffffffffffffffffffffffffffff16906020019092919050505061150a565b005b6108af6004803603602081101561088357600080fd5b81019080803573ffffffffffffffffffffffffffffffffffffffff169060200190929190505050611866565b005b3480156108bd57600080fd5b50610900600480360360208110156108d457600080fd5b81019080803573ffffffffffffffffffffffffffffffffffffffff169060200190929190505050611912565b604051808773ffffffffffffffffffffffffffffffffffffffff1673ffffffffffffffffffffffffffffffffffffffff168152602001806020018060200180602001806020018060200186810386528b818151815260200191508051906020019080838360005b83811015610982578082015181840152602081019050610967565b50505050905090810190601f1680156109af5780820380516001836020036101000a031916815260200191505b5086810385528a818151815260200191508051906020019080838360005b838110156109e85780820151818401526020810190506109cd565b50505050905090810190601f168015610a155780820380516001836020036101000a031916815260200191505b50868103845289818151815260200191508051906020019080838360005b83811015610a4e578082015181840152602081019050610a33565b50505050905090810190601f168015610a7b5780820380516001836020036101000a031916815260200191505b50868103835288818151815260200191508051906020019080838360005b83811015610ab4578082015181840152602081019050610a99565b50505050905090810190601f168015610ae15780820380516001836020036101000a031916815260200191505b50868103825287818151815260200191508051906020019080838360005b83811015610b1a578082015181840152602081019050610aff565b50505050905090810190601f168015610b475780820380516001836020036101000a031916815260200191505b509b50505050505050505050505060405180910390f35b60005481565b60036020528060005260406000206000915090508060000154908060010160009054906101000a900473ffffffffffffffffffffffffffffffffffffffff1690806002018054600181600116156101000203166002900480601f016020809104026020016040519081016040528092919081815260200182805460018160011615610100020316600290048015610c3c5780601f10610c1157610100808354040283529160200191610c3c565b820191906000526020600020905b815481529060010190602001808311610c1f57829003601f168201915b505050505090806003018054600181600116156101000203166002900480601f016020809104026020016040519081016040528092919081815260200182805460018160011615610100020316600290048015610cda5780601f10610caf57610100808354040283529160200191610cda565b820191906000526020600020905b815481529060010190602001808311610cbd57829003601f168201915b505050505090806004018054600181600116156101000203166002900480601f016020809104026020016040519081016040528092919081815260200182805460018160011615610100020316600290048015610d785780601f10610d4d57610100808354040283529160200191610d78565b820191906000526020600020905b815481529060010190602001808311610d5b57829003601f168201915b5050505050908060050160009054906101000a900473ffffffffffffffffffffffffffffffffffffffff16905086565b60015481565b60008081548092919060010191905055506040518060c001604052803373ffffffffffffffffffffffffffffffffffffffff16815260200186815260200185815260200184815260200183815260200182815250600260003373ffffffffffffffffffffffffffffffffffffffff1673ffffffffffffffffffffffffffffffffffffffff16815260200190815260200160002060008201518160000160006101000a81548173ffffffffffffffffffffffffffffffffffffffff021916908373ffffffffffffffffffffffffffffffffffffffff1602179055506020820151816001019080519060200190610ea4929190611c66565b506040820151816002019080519060200190610ec1929190611c66565b506060820151816003019080519060200190610ede929190611c66565b506080820151816004019080519060200190610efb929190611c66565b5060a0820151816005019080519060200190610f18929190611c66565b509050507fb3b146b7ffc458adac1436d8ecf9955666210dcacb2f4d2091aa18b028c2b95a338686868686604051808773ffffffffffffffffffffffffffffffffffffffff1673ffffffffffffffffffffffffffffffffffffffff168152602001806020018060200180602001806020018060200186810386528b818151815260200191508051906020019080838360005b83811015610fc5578082015181840152602081019050610faa565b50505050905090810190601f168015610ff25780820380516001836020036101000a031916815260200191505b5086810385528a818151815260200191508051906020019080838360005b8381101561102b578082015181840152602081019050611010565b50505050905090810190601f1680156110585780820380516001836020036101000a031916815260200191505b50868103845289818151815260200191508051906020019080838360005b83811015611091578082015181840152602081019050611076565b50505050905090810190601f1680156110be5780820380516001836020036101000a031916815260200191505b50868103835288818151815260200191508051906020019080838360005b838110156110f75780820151818401526020810190506110dc565b50505050905090810190601f1680156111245780820380516001836020036101000a031916815260200191505b50868103825287818151815260200191508051906020019080838360005b8381101561115d578082015181840152602081019050611142565b50505050905090810190601f16801561118a5780820380516001836020036101000a031916815260200191505b509b50505050505050505050505060405180910390a15050505050565b6001600081548092919060010191905055506040518060c0016040528060015481526020018673ffffffffffffffffffffffffffffffffffffffff1681526020018581526020018481526020018381526020018273ffffffffffffffffffffffffffffffffffffffff168152506003600060015481526020019081526020016000206000820151816000015560208201518160010160006101000a81548173ffffffffffffffffffffffffffffffffffffffff021916908373ffffffffffffffffffffffffffffffffffffffff1602179055506040820151816002019080519060200190611296929190611c66565b5060608201518160030190805190602001906112b3929190611c66565b5060808201518160040190805190602001906112d0929190611c66565b5060a08201518160050160006101000a81548173ffffffffffffffffffffffffffffffffffffffff021916908373ffffffffffffffffffffffffffffffffffffffff1602179055509050507fc96b88cad68c8879fb370ded6ddfcd140426ad3b0751fdd4df7b7d84701aeb476001548686868686604051808781526020018673ffffffffffffffffffffffffffffffffffffffff1673ffffffffffffffffffffffffffffffffffffffff1681526020018060200180602001806020018573ffffffffffffffffffffffffffffffffffffffff1673ffffffffffffffffffffffffffffffffffffffff168152602001848103845288818151815260200191508051906020019080838360005b838110156113f65780820151818401526020810190506113db565b50505050905090810190601f1680156114235780820380516001836020036101000a031916815260200191505b50848103835287818151815260200191508051906020019080838360005b8381101561145c578082015181840152602081019050611441565b50505050905090810190601f1680156114895780820380516001836020036101000a031916815260200191505b50848103825286818151815260200191508051906020019080838360005b838110156114c25780820151818401526020810190506114a7565b50505050905090810190601f1680156114ef5780820380516001836020036101000a031916815260200191505b50995050505050505050505060405180910390a15050505050565b3373ffffffffffffffffffffffffffffffffffffffff16600260003373ffffffffffffffffffffffffffffffffffffffff1673ffffffffffffffffffffffffffffffffffffffff16815260200190815260200160002060000160009054906101000a900473ffffffffffffffffffffffffffffffffffffffff1673ffffffffffffffffffffffffffffffffffffffff161480156116a6575060405160200180807f77686f6c6573656c6c6572000000000000000000000000000000000000000000815250600b01905060405160208183030381529060405280519060200120600260003373ffffffffffffffffffffffffffffffffffffffff1673ffffffffffffffffffffffffffffffffffffffff16815260200190815260200160002060050160405160200180828054600181600116156101000203166002900480156116895780601f10611667576101008083540402835291820191611689565b820191906000526020600020905b815481529060010190602001808311611675575b505091505060405160208183030381529060405280519060200120145b80156117b1575060405160200180807f6d65726368616e74000000000000000000000000000000000000000000000000815250600801905060405160208183030381529060405280519060200120600260008373ffffffffffffffffffffffffffffffffffffffff1673ffffffffffffffffffffffffffffffffffffffff16815260200190815260200160002060050160405160200180828054600181600116156101000203166002900480156117945780601f10611772576101008083540402835291820191611794565b820191906000526020600020905b815481529060010190602001808311611780575b505091505060405160208183030381529060405280519060200120145b6117ba57600080fd5b600260008273ffffffffffffffffffffffffffffffffffffffff1673ffffffffffffffffffffffffffffffffffffffff16815260200190815260200160002060000160009054906101000a900473ffffffffffffffffffffffffffffffffffffffff1673ffffffffffffffffffffffffffffffffffffffff166108fc349081150290604051600060405180830381858888f19350505050158015611862573d6000803e3d6000fd5b5050565b600260008273ffffffffffffffffffffffffffffffffffffffff1673ffffffffffffffffffffffffffffffffffffffff16815260200190815260200160002060000160009054906101000a900473ffffffffffffffffffffffffffffffffffffffff1673ffffffffffffffffffffffffffffffffffffffff166108fc349081150290604051600060405180830381858888f1935050505015801561190e573d6000803e3d6000fd5b5050565b60026020528060005260406000206000915090508060000160009054906101000a900473ffffffffffffffffffffffffffffffffffffffff1690806001018054600181600116156101000203166002900480601f0160208091040260200160405190810160405280929190818152602001828054600181600116156101000203166002900480156119e45780601f106119b9576101008083540402835291602001916119e4565b820191906000526020600020905b8154815290600101906020018083116119c757829003601f168201915b505050505090806002018054600181600116156101000203166002900480601f016020809104026020016040519081016040528092919081815260200182805460018160011615610100020316600290048015611a825780601f10611a5757610100808354040283529160200191611a82565b820191906000526020600020905b815481529060010190602001808311611a6557829003601f168201915b505050505090806003018054600181600116156101000203166002900480601f016020809104026020016040519081016040528092919081815260200182805460018160011615610100020316600290048015611b205780601f10611af557610100808354040283529160200191611b20565b820191906000526020600020905b815481529060010190602001808311611b0357829003601f168201915b505050505090806004018054600181600116156101000203166002900480601f016020809104026020016040519081016040528092919081815260200182805460018160011615610100020316600290048015611bbe5780601f10611b9357610100808354040283529160200191611bbe565b820191906000526020600020905b815481529060010190602001808311611ba157829003601f168201915b505050505090806005018054600181600116156101000203166002900480601f016020809104026020016040519081016040528092919081815260200182805460018160011615610100020316600290048015611c5c5780601f10611c3157610100808354040283529160200191611c5c565b820191906000526020600020905b815481529060010190602001808311611c3f57829003601f168201915b5050505050905086565b828054600181600116156101000203166002900490600052602060002090601f016020900481019282601f10611ca757805160ff1916838001178555611cd5565b82800160010185558215611cd5579182015b82811115611cd4578251825591602001919060010190611cb9565b5b509050611ce29190611ce6565b5090565b611d0891905b80821115611d04576000816000905550600101611cec565b5090565b9056fea265627a7a723158200579c1590d2fa39563e06ff8ae8a8af24e3d517c0618eccca733dc7822d1ab7e64736f6c634300050c0032",
  "source": "pragma solidity ^0.5.0;\r\n\r\ncontract Gst {\r\n    uint256 public userCount = 0;\r\n    uint256 public billCount = 100;\r\n    mapping(address => Users) public usersMap;\r\n    mapping(uint256 => Bill) public billMap;\r\n    struct Users {\r\n        address payable addr;\r\n        string firstName;\r\n        string lastName;\r\n        string email;\r\n        string gstNumber;\r\n        string userType;\r\n    }\r\n\r\n    struct Bill {\r\n        uint256 id;\r\n        address receiverAddress;\r\n        string materialSelected;\r\n        string beforeGstAmount;\r\n        string afterGstAmount;\r\n        address billIssuer;\r\n    }\r\n\r\n    event BillCreated (\r\n        uint256 id,\r\n        address receiverAddress,\r\n        string materialSelected,\r\n        string beforeGstAmount,\r\n        string afterGstAmount,\r\n        address billIssuer\r\n    );\r\n\r\n    event AccountCreated(\r\n        address payable addr,\r\n        string firstName,\r\n        string lastName,\r\n        string email,\r\n        string gstNumber,\r\n        string userType\r\n    );\r\n\r\n    function createAccount(\r\n        string memory _firstName,\r\n        string memory _lastname,\r\n        string memory _email,\r\n        string memory _gstNumber,\r\n        string memory _userType\r\n        )\r\n        public {\r\n            userCount ++;\r\n            usersMap[msg.sender] = Users(msg.sender, _firstName, _lastname, _email, _gstNumber, _userType);\r\n            emit AccountCreated(msg.sender, _firstName, _lastname, _email, _gstNumber, _userType);\r\n    }\r\n\r\n    function generateBill(\r\n        address _receiverAddress,\r\n        string memory _materialSelected,\r\n        string memory _beforeGstAmount,\r\n        string memory _afterGstAmount,\r\n        address _billIssuer\r\n        ) public {\r\n        billCount ++;\r\n        billMap[billCount] = Bill(billCount, _receiverAddress, _materialSelected, _beforeGstAmount, _afterGstAmount, _billIssuer);\r\n        emit BillCreated(billCount, _receiverAddress, _materialSelected, _beforeGstAmount, _afterGstAmount, _billIssuer);\r\n    }\r\n\r\n    function test(address _receiver) public payable{\r\n        usersMap[_receiver].addr.transfer(msg.value);\r\n    }\r\n\r\n    function transferAmount(address _receiverAddress) public payable {\r\n        require(\r\n            usersMap[msg.sender].addr == msg.sender && \r\n            keccak256(abi.encodePacked((usersMap[msg.sender].userType))) == keccak256(abi.encodePacked(('wholeseller'))) && \r\n            keccak256(abi.encodePacked((usersMap[_receiverAddress].userType))) == keccak256(abi.encodePacked(('merchant')))\r\n        );\r\n            usersMap[_receiverAddress].addr.transfer(msg.value);\r\n    }\r\n}",
  "sourcePath": "C:/Users/BE/Desktop/gst_system/contracts/Gst.sol",
  "compiler": {
    "name": "solc",
    "version": "0.5.12+commit.7709ece9.Emscripten.clang"
  },
  "schemaVersion": "3.0.20",
  "updatedAt": "2020-03-05T06:33:21.753Z",
  "networkType": "ethereum",
  "devdoc": {
    "methods": {}
  },
  "userdoc": {
    "methods": {}
  }
}